:10000000D6C4000090C600008EC600008CC600005A
:100010008AC6000088C6000086C6000084C60000AC
:1000200082C6000080C600000C94782C0C94412DF0
:100030007AC6000078C6000076C6000074C60000CC
:1000400072C600000C94D8200C94AE206CC6000040
:100050000C94B51D68C6000066C6000064C60000AA
:100060000C942E2860C600005EC600005CC600002E
:100070005AC6000058C6000056C6000054C600000C
:1000800052C6000050C600004EC600004CC600001C
:100090004AC6000048C600006E616E00696E6600C8
:1000A00000407A10F35A00A0724E18090010A5D42F
:1000B000E80000E87648170000E40B54020000CA8C
:1000C0009A3B000000E1F5050000809698000000D2
:1000D00040420F000000A086010000001027000031
:1000E0000000E803000000006400000000000A00B7
:1000F000000000000100000000002C76D888DC67BA
:100100004F0823DFC1DFAE59E1B1B796E5E3E45311
:10011000C63AE651997696E8E6C28426EB898C9B2E
:1001200062ED407C6FFCEFBC9C9F40F2BAA56FA5CE
:10013000F490055A2AF75C936B6CF9676DC11BFC50
:10014000E0E40D47FEF520E6B500D0ED902E03006B
:10015000943577050080841E080000204E0A0000B8
:1001600000C80C333333330F986E12831141EF8D77
:100170002114893BE65516CFFEE6DB18D1844B38B7
:100180001BF77C1D901DA4BBE424203284725E22E8
:100190008100C9F124ECA1E53D27253031306C7593
:1001A0002025734025733A204572617365204545CB
:1001B00050524F4D20450D0A00253031306C7520CE
:1001C00025734025733A2054756E6520546E206E59
:1001D0003D667265710D0A00253031306C75202541
:1001E000734025733A2050747420776974682074C2
:1001F000696D656F757420506E206E3D6D730D0ACC
:1002000000253031306C752025734025733A205419
:100210006F20636F6E6E65637420496E64756374DE
:100220006F722076616C756520757365206C6E2029
:100230006E3D302D3E3235350D0A00253031306CA3
:10024000752025734025733A20546F20636F6E6EBE
:1002500065637420436170616369746F72207661B5
:100260006C75652075736520636E206E3D2D32358B
:10027000352D3E3235350D0A00253031306C752074
:1002800025734025733A20546F20646F636F6E6E40
:1002900065637420636170616369746F72733A207F
:1002A000433020746F20636F6E6E656374206F6ED1
:1002B0006520636170616369746F7220696E2043A9
:1002C0006E206E3D2D382D3E380D0A002530313020
:1002D0006C752025734025733A20546F2073686F26
:1002E000727420696E647563746F72733A204C3057
:1002F00020746F20656E61626C65206F6E65206989
:100300006E647563746F72204C6E206E3D312D3EAD
:10031000380D0A00253031306C7520257340257367
:100320003A20546F2064697361626C652066696C61
:100330007465723A20463020746F20656E61626C7D
:10034000652066696C746572207374657020466EF2
:10035000206E3D312D3E360D0A00253031306C7552
:100360002025734025733A205465737420415455F9
:100370002066756E6374696F6E616C69747920753F
:10038000736520666F6C6C6F77696E6720636F6D45
:100390006D616E64733A0D0A00253031306C752042
:1003A00025734025733A205357523A25660D0A00AB
:1003B000253031306C752025734025733A20505418
:1003C0005420656E61626C6564207769746820747E
:1003D000696D656F7574202575206D730A0D0D0AA2
:1003E00000253031306C752025734025733A205636
:1003F0005357523D252E32660D0A00253031306CA0
:10040000752025734025733A20565357523D252EAB
:1004100032660D0A00253031306C75202573402579
:10042000733A20434C20636F6E666967757261741E
:10043000696F6E204325640D0A00253031306C75DC
:100440002025734025733A204C4320636F6E666904
:100450006775726174696F6E204325640D0A00250B
:100460003031306C752025734025733A2044697310
:10047000636F6E656E637420616C6C206361706184
:100480006369746F72730D0A00253031306C75200A
:1004900025734025733A20565357523D252E326618
:1004A0000D0A00253031306C752025734025733AD4
:1004B00020565357523D252E32660D0A0025303105
:1004C000306C752025734025733A20436F6E6E653E
:1004D00063746564204C25640D0A00253031306C4E
:1004E000752025734025733A2053686F727420413C
:1004F0006C6C20696E647563746F72730D0A0025ED
:100500003031306C752025734025733A2053657463
:1005100074696E672062616E6420746F2025752097
:100520004D687A0D0A00253031306C7520257340F6
:1005300025733A20446973616C6265204C50460D06
:100540000A00253031306C752025734025733A2020
:10055000576F726B696E670D0A00253031306C750C
:100560002025734025733A20444F4E450D0A00253F
:100570003031306C752025734025733A2045726107
:1005800073696E6720454550524F4D210D0A002575
:100590003031306C752025734025733A20536176D5
:1005A00065642074756E6520746F3A20256420613F
:1005B00067653A25640D0A00253031306C752025B9
:1005C000734025733A204E6F2074756E6520666FF8
:1005D00072207468697320667265710D0A00253097
:1005E00031306C752025734025733A204C202564EA
:1005F0002C20432025640D0A00253031306C7520F5
:1006000025734025733A2053746F72656420256CFE
:100610007520487A0D0A00253031306C752025731D
:100620004025733A2052657120202020256C7520CA
:10063000487A0D0A00253031306C7520257340252D
:10064000733A2054756E696E672066726F6D206D07
:10065000656D6F72792025640D0A00253031306C8C
:10066000752025734025733A20436C6F736573744E
:1006700054756E6520696E6465783A2025640D0AAC
:1006800000253031306C752025734025733A2042A7
:1006900061636B7374657020565357523D252E323B
:1006A000660D0A00253031306C75202573402573A6
:1006B0003A20565357523D252E32660D0A002530FA
:1006C00031306C752025734025733A204C25642009
:1006D0004325640D0A00253031306C7520257340A8
:1006E00025733A204C2564204325640D0A002530EB
:1006F00031306C752025734025733A204154550DD7
:100700000A00253031306C752025734025733A205E
:100710004C2025642D25640D0A00253031306C7580
:100720002025734025733A20432025642D25640D30
:100730000A00253031306C752025734025733A202E
:100740004C206C696D69743A2564206E480D0A006E
:10075000253031306C752025734025733A204320B5
:100760006C696D69743A25642070460D0A00253065
:1007700031306C752025734025733A204677643DEF
:100780002564205265763D2564205068693D2564C6
:100790000D0A001C034C0055004600410020004398
:1007A00000440043002000440065006D006F00001D
:1007B0000018034400650061006E002000430061E2
:1007C000006D006500720061000000040309040967
:1007D000023E00020100C0320904000001020201D1
:1007E0000005240010010424020605240600010768
:1007F0000582030800FF09040100020A0000000747
:1008000005040210000507058302100005120110FF
:100810000102000008EB03442001000102DC012575
:100820003031306C752025734025733A20556E6B3E
:100830006E6F776E0A0D0D0A00253031306C752011
:1008400025734025733A2056657273696F6E207266
:100850006561640D0A00253031306C7520257340C8
:1008600025733A2053746174757320726561640D49
:100870000A00253031306C752025734025733A20ED
:1008800041626F72742074756E696E67206D657356
:10089000736167650D0A00253031306C7520257352
:1008A0004025733A2045726173696E672045455053
:1008B000524F4D210D0A00253031306C75202573C3
:1008C0004025733A205054542064697361626C650A
:1008D000640A0D0D0A00253031306C7520257340F7
:1008E00025733A2050545420656E61626C65642013
:1008F000776974682074696D656F7574202575203B
:100900006D730A0D0D0A00253031306C752025738A
:100910004025733A2042616E642025640D0A00254B
:100920003031306C752025734025733A205365743F
:1009300074696E67206672657175656E637920747F
:100940006F20256C7520487A0D0A00253031306CF7
:10095000752025734025733A205374617274696E53
:1009600067206D61696E206C6F6F700D0A00253015
:1009700031306C752025734025733A20496E6974B7
:1009800069616C697A696E670D0A00253031306CD7
:10099000752025734025733A2053504920517565C1
:1009A000204F766572666C6F77210D0A0000112466
:1009B0001FBECFEFD0E2DEBFCDBF14BE0FB6F8949E
:1009C000A89580916000886180936000109260001B
:1009D0000FBEE1E6F0E080E88083108212E0A0E044
:1009E000B1E0E2E0FFE600E00BBF02C007900D922D
:1009F000A432B107D9F720E1A4E2B2E001C01D9210
:100A0000AF31B207E1F70E94C91BEAEFF0E2CF0174
:100A10008DBF9EBF26E030E04AEF50E260E081E902
:100A200096E00E94F51CE1E9F6E087E59BE19387FB
:100A30008287A081B181CD010197918380838AE46F
:100A40009BE18C93A081B1819D01215031093183BB
:100A500020839C93CF010E944E1D81E996E00E9465
:100A6000231C20E031E049E755E065E089E796E0A6
:100A70000E94F51C6EE470E289E796E00E94131C68
:100A800064EE74E289E796E00E94131C6EE57BE158
:100A900089E796E00E94131C89E796E00E944E1DAC
:100AA00089E796E00E94231CE4E6F0E08081877FDE
:100AB00080831092800081E080936F0085E08093B6
:100AC00081008BE790E2909301018093000120E088
:100AD00032E049E352E065E089E394E00E94F51CCE
:100AE0006EE470E289E394E00E94131C6CE479E107
:100AF00089E394E00E94131C6EE57BE189E394E0B6
:100B00000E94131C89E394E00E944E1D89E394E047
:100B10000E94231C89E394E09093450F8093440F37
:100B200020E031E043E654E06BE083E695E00E948C
:100B3000F51C65E171E283E695E00E94131C67E90C
:100B40007CE183E695E00E94131C6EE57BE183E681
:100B500095E00E94131C83E695E00E944E1D83E6FB
:100B600095E090935F0F80935E0F20E031E049EABB
:100B700056E066E089EA97E00E94F51C6EE470E2B8
:100B800089EA97E00E94131C6DE571E289EA97E01B
:100B90000E94131C6EE57BE189EA97E00E94131C1A
:100BA00089EA97E00E944E1D89EA97E00E94231C83
:100BB00089EA97E09093940F8093930F20E031E0BF
:100BC00047E05EE065E087E09FE00E94F51C6EE490
:100BD00070E287E09FE00E94131C6AEB72E287E0FC
:100BE0009FE00E94131C6EE57BE187E09FE00E947E
:100BF000131C87E09FE00E944E1D87E09FE00E944B
:100C0000231C87E09FE09093BD0F8093BC0F20E0F2
:100C100034E04FEE59E068E08FEE9DE00E94F51C55
:100C20006EE470E28FEE9DE00E94131C6AED72E2AA
:100C30008FEE9DE00E94131C6EE57BE18FEE9DE040
:100C40000E94131C8FEE9DE00E944E1D8FEE9DE0D2
:100C50000E94231C8FEE9DE09093AF0F8093AE0F08
:100C600020E031E047ED58E06AE087ED99E00E942E
:100C7000F51C6EE470E287ED99E00E94131C61EFB1
:100C800072E287ED99E00E94131C6EE57BE187ED2F
:100C900099E00E94131C87ED99E00E944E1D87ED9C
:100CA00099E00E94231C87ED99E09093BB0F8093FD
:100CB000BA0F20E031E04FEB57E069E08FEB98E0AE
:100CC0000E94F51C6EE470E28FEB98E00E94131C0A
:100CD00067E074E28FEB98E00E94131C6EE57BE105
:100CE0008FEB98E00E94131C8FEB98E00E944E1D42
:100CF0008FEB98E00E94231C8FEB98E09093BF0F3E
:100D00008093BE0F0E94FE1FE091620FF091630F6F
:100D10000190F081E02DCF018DBF9EBF08950E940C
:100D2000E4240C944E206CC9CF92DF92EF92FF9294
:100D30000F931F93CF93DF9320917C0025FF04C076
:100D4000C0917900D0E006C0C09178002091790070
:100D5000D0E0D22B009789F18C01BE0180E090E0B9
:100D60000E946D3020913A0F30913B0F40913C0F23
:100D700050913D0F0E9423316B017C0180917C00DA
:100D800085FD02C08AE001C088E061E070E002C039
:100D9000660F771F8A95E2F7072E000C880B990BD8
:100DA0000E946F309B01AC01C701B6010E94D42F95
:100DB000F8016083718382839383CE01DF91CF91A9
:100DC0001F910F91FF90EF90DF90CF9008959C01BD
:100DD000EAE7F0E0908190649083908196FDFDCFEA
:100DE000C901A2CF0895ECE7F0E09081907E892BB5
:100DF0008083CB01ECCF08951F93CF93DF931FB770
:100E0000F894E091620FF091630F309719F0C68962
:100E1000D78902C0CDE5D1E00E94E31B23E631E093
:100E20003F932F93DF93CF939F938F937F936F93F2
:100E30008AE593E09F938F930E94CA1B1FBF1FB741
:100E4000F894E091620FF091630F8DB79EB70A9608
:100E50000FB6F8949EBF0FBE8DBF309719F0C689AC
:100E6000D78902C0CDE5D1E00E94E31B23E631E043
:100E70003F932F93DF93CF939F938F937F936F93A2
:100E800084E193E09F938F930E94CA1B1FBF1FB7FB
:100E9000F894E091620FF091630F8DB79EB70A96B8
:100EA0000FB6F8949EBF0FBE8DBF309719F0C6895C
:100EB000D78902C0CDE5D1E00E94E31B23E631E0F3
:100EC0003F932F93DF93CF939F938F937F936F9352
:100ED0008CEC92E09F938F930E94CA1B1FBF1FB799
:100EE000F894E091620FF091630F8DB79EB70A9668
:100EF0000FB6F8949EBF0FBE8DBF309719F0C6890C
:100F0000D78902C0CDE5D1E00E94E31B23E631E0A2
:100F10003F932F93DF93CF939F938F937F936F9301
:100F200089E792E09F938F930E94CA1B1FBF1FB750
:100F3000F894E091620FF091630F8DB79EB70A9617
:100F40000FB6F8949EBF0FBE8DBF309719F0C689BB
:100F5000D78902C0CDE5D1E00E94E31B23E631E052
:100F60003F932F93DF93CF939F938F937F936F93B1
:100F70008BE392E09F938F930E94CA1B1FBF1FB702
:100F8000F894E091620FF091630F8DB79EB70A96C7
:100F90000FB6F8949EBF0FBE8DBF309719F0C6896B
:100FA000D78902C0CDE5D1E00E94E31B23E631E002
:100FB0003F932F93DF93CF939F938F937F936F9361
:100FC00081E092E09F938F930E94CA1B1FBF1FB7BF
:100FD000F894E091620FF091630F8DB79EB70A9677
:100FE0000FB6F8949EBF0FBE8DBF309719F0C6891B
:100FF000D78902C0CDE5D1E00E94E31B23E631E0B2
:101000003F932F93DF93CF939F938F937F936F9310
:1010100088ED91E09F938F930E94CA1B1FBF1FB75B
:10102000F894E091620FF091630F8DB79EB70A9626
:101030000FB6F8949EBF0FBE8DBF309719F0C689CA
:10104000D78902C0CDE5D1E00E94E31B23E631E061
:101050003F932F93DF93CF939F938F937F936F93C0
:1010600089EB91E09F938F930E94CA1B1FBF1FB70C
:10107000F894E091620FF091630F8DB79EB70A96D6
:101080000FB6F8949EBF0FBE8DBF309719F0C6897A
:10109000D78902C0CDE5D1E00E94E31B23E631E011
:1010A0003F932F93DF93CF939F938F937F936F9370
:1010B0008AE991E09F938F930E94CA1B1FBF8DB74F
:1010C0009EB70A960FB6F8949EBF0FBE8DBFDF91F4
:1010D000CF911F910895CF92DF92EF92FF920F93DD
:1010E0001F93CF93DF93E0912402AE2FB0E0AB5D6E
:1010F000BD4F8C93E33130F4EF5FE0932402E23094
:1011000020F4CCC310922402C9C3F0E0EC5DFD4F83
:1011100080818A3009F0C2C380912502803509F4AC
:101120004DC388F4863409F4A6C030F4833409F43E
:1011300011C28534D1F0AFC38C3409F418C18D3499
:1011400009F466C0A8C3833609F4E9C238F48335CC
:1011500009F46DC3843509F42BC39DC38C3609F49F
:10116000B0C1833709F495C396C31FB7F894E091D3
:10117000620FF091630F309719F0C689D78902C0CA
:10118000CDE5D1E00E94E31B27E731E03F932F93A9
:10119000DF93CF939F938F937F936F938FE695E029
:1011A0009F938F930E94CA1B1FBF0E9416191FB7DF
:1011B000F894E091620FF091630F8DB79EB70A9695
:1011C0000FB6F8949EBF0FBE8DBF309719F0C68939
:1011D000D78902C0CDE5D1E00E94E31B27E731E0CB
:1011E0003F932F93DF93CF939F938F937F936F932F
:1011F0008AE595E09F938F930E94CA1B1FBF8DB70E
:101200009EB70A960FB6F8949EBF0FBE8DBF44C31B
:101210001FB7F894E091620FF091630F309719F0C7
:10122000C689D78902C0CDE5D1E00E94E31B27E73C
:1012300031E03F932F93DF93CF939F938F937F93CF
:101240006F9382E495E09F938F930E94CA1B1FBF08
:1012500020E432E44FE050E065E070E080E090E0B0
:101260000E9443168DB79EB70A960FB6F8949EBF9C
:101270000FBE8DBF11C386E292E00E945C350097DD
:1012800059F51FB7F894E091620FF091630F309712
:1012900019F0C689D78902C0CDE5D1E00E94E31BD1
:1012A00027E731E03F932F93DF93CF939F938F9363
:1012B0007F936F9386E295E09F938F930E94CA1B62
:1012C0001FBF0E9473228DB79EB70A960FB6F8947F
:1012D0009EBF0FBE8DBFE0C2DFB7F894CFEFC80F3F
:1012E0008C2F0E94A22220E432E44FE050E00E94C2
:1012F0000F35F22EE32ED42EC52EE091620FF09121
:10130000630F309719F00689178902C00DE511E0C7
:101310000E94E31BCF92DF92EF92FF9227E731E02A
:101320003F932F931F930F939F938F937F936F936D
:101330008FEF94E09F938F930E94CA1BDFBF8C2F87
:101340000E94A2226093A20F7093A30F8093A40F18
:101350009093A50F0E9465220E941F228DB79EB711
:101360000E960FB6F8949EBF0FBE8DBF95C286E253
:1013700092E00E945C35EC01892B61F51FB7F8946F
:10138000E091620FF091630F309719F0C689D78909
:1013900002C0CDE5D1E00E94E31B27E731E03F9397
:1013A0002F93DF93CF939F938F937F936F938BEDC7
:1013B00094E09F938F930E94CA1B1FBF80E090E030
:1013C00076D28DB79EB70A960FB6F8949EBF0FBE21
:1013D0008DBF33C0FFB6F894E091620FF091630FB8
:1013E000309719F00689178902C00DE511E00E94B7
:1013F000E31BDF93CF9327E731E03F932F931F93B6
:101400000F939F938F937F936F938DEB94E09F93B4
:101410008F930E94CA1BFFBE219781E090E002C01B
:10142000880F991FCA95E2F742D28DB79EB70C96E6
:101430000FB6F8949EBF0FBE8DBF60E375E780E0E6
:1014400090E00E94B31E60E375E780E090E00E94A8
:10145000B31E60E375E780E090E00E94B31E8DD775
:10146000062FF72EE82ED92E1FB7F894E091620FC1
:10147000F091630F309719F0C689D78902C0CDE586
:10148000D1E00E94E31BDF92EF92FF920F9327E7D8
:1014900031E03F932F93DF93CF939F938F937F936D
:1014A0006F9383EA94E09F938F930E94CA1B1FBFA0
:1014B0008DB79EB70E960FB6F8949EBF0FBE8DBF28
:1014C000EBC186E292E00E945C35F1D160E375E702
:1014D00080E090E00E94B31E60E375E780E090E05A
:1014E0000E94B31E60E375E780E090E00E94B31EA7
:1014F00044D7062FF72EE82ED92E1FB7F894E09187
:10150000620FF091630F309719F0C689D78902C036
:10151000CDE5D1E00E94E31BDF92EF92FF920F93A3
:1015200027E731E03F932F93DF93CF939F938F93E0
:101530007F936F9389E894E09F938F930E94CA1BD7
:101540001FBF8DB79EB70E960FB6F8949EBF0FBE05
:101550008DBFA2C186E292E00E945C35EC0100974B
:1015600061F51FB7F894E091620FF091630F309727
:1015700019F0C689D78902C0CDE5D1E00E94E31BEE
:1015800027E731E03F932F93DF93CF939F938F9380
:101590007F936F938FE594E09F938F930E94CA1B74
:1015A0001FBF80E090E089D48DB79EB70A960FB632
:1015B000F8949EBF0FBE8DBF6EC09923CCF5DFB6E9
:1015C000F894EE24FF24E81AF90AE091620FF091F2
:1015D000630F309719F00689178902C00DE511E0F5
:1015E0000E94E31BFF92EF9227E731E03F932F9396
:1015F0001F930F939F938F937F936F938AE394E04E
:101600009F938F930E94CA1BDFBEC095D0958FEF2A
:101610009FEF02C0880F991FCA95E2F74ED48DB78D
:101620009EB70C960FB6F8949EBF0FBE8DBF33C009
:10163000FFB6F894E091620FF091630F309719F0C4
:101640000689178902C00DE511E00E94E31BDF93B4
:10165000CF9327E731E03F932F931F930F939F93EF
:101660008F937F936F9385E194E09F938F930E9474
:10167000CA1BFFBE219781E090E002C0880F991F2E
:10168000CA95E2F71AD48DB79EB70C960FB6F894A8
:101690009EBF0FBE8DBF60E375E780E090E00E94C3
:1016A000B31E60E375E780E090E00E94B31E60E344
:1016B00075E780E090E00E94B31E5FD6062FF72EFC
:1016C000E82ED92E1FB7F894E091620FF091630FC6
:1016D000309719F0C689D78902C0CDE5D1E00E94C4
:1016E000E31BDF92EF92FF920F9327E731E03F93E6
:1016F0002F93DF93CF939F938F937F936F938BEF72
:1017000093E09F938F930E94CA1B1FBF8DB79EB714
:101710000E960FB6F8949EBF0FBE8DBFBDC086E279
:1017200092E00E945C35C9D360E375E780E090E009
:101730000E94B31E60E375E780E090E00E94B31E54
:1017400060E375E780E090E00E94B31E16D6062F96
:10175000F72EE82ED92E1FB7F894E091620FF09182
:10176000630F309719F0C689D78902C0CDE5D1E063
:101770000E94E31BDF92EF92FF920F9327E731E085
:101780003F932F93DF93CF939F938F937F936F9389
:1017900081EE93E09F938F930E94CA1B1FBF8DB76A
:1017A0009EB70E960FB6F8949EBF0FBE8DBF74C045
:1017B00086E292E00E9479350AD66EC086E292E017
:1017C0000E945C35F82E092F8091210F81112AC0CB
:1017D0001FB7F894E091620FF091630F309719F002
:1017E000C689D78902C0CDE5D1E00E94E31B0F93E3
:1017F000FF9227E731E03F932F93DF93CF939F939F
:101800008F937F936F9380EB93E09F938F930E94CE
:10181000CA1B1FBF8DB79EB70C960FB6F8949EBF1C
:101820000FBE8DBF8F2D902F0E948E2335C01FB706
:10183000F894A3D5062FF72EE82ED92EE091620F4B
:10184000F091630F309719F0C689D78902C0CDE5B2
:10185000D1E00E94E31BDF92EF92FF920F9327E704
:1018600031E03F932F93DF93CF939F938F937F9399
:101870006F9389E993E09F938F930E94CA1B1FBFC8
:101880008DB79EB70E960FB6F8949EBF0FBE8DBF54
:1018900003C09FD301C0B0DA10922402DF91CF9130
:1018A0001F910F91FF90EF90DF90CF900895CF930D
:1018B000DF9300D0CDB7DEB72091500F422F50E01C
:1018C0004817590709F451C1922F909598239A838C
:1018D000282B282729838093500F8A8180FF07C0F7
:1018E00064EF71E080E090E00E94B31E779A8A81F5
:1018F00081FF07C064EF71E080E090E00E94B31EBA
:101900005D9A8A8182FF07C064EF71E080E090E019
:101910000E94B31E719A8A8183FF07C064EF71E051
:1019200080E090E00E94B31E759A8A8184FF07C010
:1019300064EF71E080E090E00E94B31E2E9A8A81ED
:1019400085FF07C064EF71E080E090E00E94B31E65
:101950002D9A8A8186FF07C064EF71E080E090E0F5
:101960000E94B31E739A8A8188233CF464EF71E06D
:1019700080E090E00E94B31E5B9A898180FF07C0DF
:1019800064EF71E080E090E00E94B31E769A898156
:1019900081FF07C064EF71E080E090E00E94B31E19
:1019A0005C9A898182FF07C064EF71E080E090E07B
:1019B0000E94B31E709A898183FF07C064EF71E0B3
:1019C00080E090E00E94B31E749A898184FF07C072
:1019D00064EF71E080E090E00E94B31E2F9A89814D
:1019E00085FF07C064EF71E080E090E00E94B31EC5
:1019F0002C9A898186FF07C064EF71E080E090E057
:101A00000E94B31E8F9A898188233CF464EF71E0B1
:101A100080E090E00E94B31E5A9A60E177E280E095
:101A200090E00E94B31E8A8180FF07C064EF71E0DE
:101A300080E090E00E94B31E77988A8181FF07C002
:101A400064EF71E080E090E00E94B31E5D988A81AF
:101A500082FF07C064EF71E080E090E00E94B31E57
:101A600071988A8183FF07C064EF71E080E090E0A5
:101A70000E94B31E75988A8184FF07C064EF71E0ED
:101A800080E090E00E94B31E2E988A8185FF07C0F7
:101A900064EF71E080E090E00E94B31E2D988A818F
:101AA00086FF07C064EF71E080E090E00E94B31E03
:101AB00073988A8188233CF464EF71E080E090E0C1
:101AC0000E94B31E5B98898180FF07C064EF71E0BC
:101AD00080E090E00E94B31E7698898181FF07C064
:101AE00064EF71E080E090E00E94B31E5C98898111
:101AF00082FF07C064EF71E080E090E00E94B31EB7
:101B00007098898183FF07C064EF71E080E090E006
:101B10000E94B31E7498898184FF07C064EF71E04E
:101B200080E090E00E94B31E2F98898185FF07C056
:101B300064EF71E080E090E00E94B31E2C988981F0
:101B400086FF07C064EF71E080E090E00E94B31E62
:101B50008F98898188233CF464EF71E080E090E005
:101B60000E94B31E5A9881E001C080E00F900F9050
:101B7000DF91CF910895CF93DF9300D000D0CDB700
:101B8000DEB72091580F3091590F2817390709F403
:101B900085C1A90140955095482359235C834B8307
:101BA000282B392B282739273A8329839093590FDB
:101BB0008093580F8B8180FF07C064EF71E080E055
:101BC00090E00E94B31E109A8B8181FF07C064EFE2
:101BD00071E080E090E00E94B31E129A8B8182FF38
:101BE00007C064EF71E080E090E00E94B31E149A99
:101BF0008B8183FF07C064EF71E080E090E00E947A
:101C0000B31E169A8B8184FF07C064EF71E080E0F9
:101C100090E00E94B31E479A8B8185FF07C064EF56
:101C200071E080E090E00E94B31E459A8B8186FFB0
:101C300007C064EF71E080E090E00E94B31E439A19
:101C40008B8188233CF464EF71E080E090E00E9497
:101C5000B31E419A8B819C8190FF07C064EF71E0B5
:101C600080E090E00E94B31E5F9A898180FF07C0E8
:101C700064EF71E080E090E00E94B31E119A8981C8
:101C800081FF07C064EF71E080E090E00E94B31E26
:101C9000139A898182FF07C064EF71E080E090E0D1
:101CA0000E94B31E159A898183FF07C064EF71E01B
:101CB00080E090E00E94B31E179A898184FF07C0DC
:101CC00064EF71E080E090E00E94B31E469A898143
:101CD00085FF07C064EF71E080E090E00E94B31ED2
:101CE000449A898186FF07C064EF71E080E090E04C
:101CF0000E94B31E429A898188233CF464EF71E00C
:101D000080E090E00E94B31E409A89819A8190FF02
:101D100007C064EF71E080E090E00E94B31E5E9A1D
:101D200060E177E280E090E00E94B31E8B8180FF4B
:101D300007C064EF71E080E090E00E94B31E10984D
:101D40008B8181FF07C064EF71E080E090E00E942A
:101D5000B31E12988B8182FF07C064EF71E080E0B0
:101D600090E00E94B31E14988B8183FF07C064EF3C
:101D700071E080E090E00E94B31E16988B8184FF92
:101D800007C064EF71E080E090E00E94B31E4798C6
:101D90008B8185FF07C064EF71E080E090E00E94D6
:101DA000B31E45988B8186FF07C064EF71E080E029
:101DB00090E00E94B31E43988B8188233CF464EF2B
:101DC00071E080E090E00E94B31E41988B819C817D
:101DD00090FF07C064EF71E080E090E00E94B31EC6
:101DE0005F98898180FF07C064EF71E080E090E038
:101DF0000E94B31E1198898181FF07C064EF71E0D2
:101E000080E090E00E94B31E1398898182FF07C092
:101E100064EF71E080E090E00E94B31E1598898124
:101E200083FF07C064EF71E080E090E00E94B31E82
:101E30001798898184FF07C064EF71E080E090E02B
:101E40000E94B31E4698898185FF07C064EF71E048
:101E500080E090E00E94B31E4498898186FF07C00D
:101E600064EF71E080E090E00E94B31E42988981A7
:101E700088233CF464EF71E080E090E00E94B31EA0
:101E8000409889819A8190FF07C064EF71E080E0FB
:101E900090E00E94B31E5E9881E001C080E00F9048
:101EA0000F900F900F90DF91CF91089590FF04C095
:101EB00099279195819591090895992334F420E00B
:101EC00031E0A901481B590BCA0155CE0895CF93A3
:101ED000DF936F9A559A699A6D9A269A259A6B9A0A
:101EE000539A6E9A549A689A6C9A279A249A879A67
:101EF000529A089A0A9A0C9A0E9A3F9A3D9A3B9ADD
:101F0000399A099A0B9A0D9A0F9A3E9A3C9A3A9AE4
:101F1000389A579A569AE4E6F0E080818E7F808363
:101F2000ECE7F0E08081806C8083EAE7F0E080817C
:101F30008068808360EA76E881E090E00E94B31ECA
:101F400010925D0410925E0410925F04109260047F
:101F50001092590410925A0410925B0410925C047F
:101F6000C4E6D0E060E070E080E00E94F3064091BB
:101F70005D0450915E0460915F0470916004480FAD
:101F8000591F611D711D40935D0450935E04609361
:101F90005F047093600460E070E081E00E94F306EB
:101FA0004091590450915A0460915B0470915C0413
:101FB000480F591F611D711D4093590450935A04D5
:101FC00060935B0470935C04219761F6DF91CF917D
:101FD00008952F923F924F925F926F927F928F92CD
:101FE0009F92AF92BF92CF92DF92EF92FF920F93A8
:101FF0001F93CF93DF93CDB7DEB7A8970FB6F894B2
:10200000DEBF0FBECDBF612C712C812C912C5E01E7
:1020100025E1A20EB11C9401ADECBCEC0E944D3543
:102020009695879596958795969587958C01000F3F
:10203000111F880F991F880F991F880F991F800FF4
:10204000911FD401A81BB90BFD01EE0FFF1F21E06A
:1020500030E02C0F3D1FE20FF31F11821082158A12
:10206000148A0F2EFAE0EF2EF12CF02D8F016F0164
:1020700034E1C30ED11C60E070E080E00E94F30602
:10208000D8012D913C911197820F931F8D939C93B2
:1020900060E070E081E00E94F306F601208131816A
:1020A000820F931F91838083F1E0EF1AF10819F7F3
:1020B00025E66216710408F446C08E010F5F1F4FBB
:1020C0001501F80140E050E0BA0181919191092E8B
:1020D000000CAA0BBB0B480F591F6A1F7B1FEA1588
:1020E000FB0599F7CB01BA012AE030E040E050E06F
:1020F0000E943135C22ED32E2093550430935604BE
:102100004093570450935804F80140E050E0BA015E
:10211000219131912C193D09C901992324F4882773
:102120009927821B930B092E000CAA0BBB0B480F9F
:10213000591F6A1F7B1FEA15FB0551F744315105F2
:10214000610571053CF03FEF831A930A8AE0680E3F
:10215000711C61CFFE017596812C912C5401412C8C
:10216000512C3201D8018D919D918D01092E000CC9
:10217000AA0BBB0B880E991EAA1EBB1E81919191C2
:10218000092E000CAA0BBB0B480E591E6A1E7B1EA3
:102190000215130539F7C501B40124E630E040E02B
:1021A00050E00E94313520935504309356044093FB
:1021B000570450935804C301B2010E946F306B0161
:1021C0007C01C501B4010E946F309B01AC01C701C5
:1021D000B6010E94D42FA8960FB6F894DEBF0FBEAA
:1021E000CDBFDF91CF911F910F91FF90EF90DF90C6
:1021F000CF90BF90AF909F908F907F906F905F90A7
:102200004F903F902F9008954F925F926F927F92E0
:102210008F929F92AF92BF92CF92DF92EF92FF92F6
:10222000CF93DF9300D000D000D0CDB7DEB784E6E7
:1022300090E09A838983C12CD12C7601812C912C3A
:10224000540160E070E080E00E94F306880E991E61
:10225000A11CB11C60E070E081E00E94F306C80E92
:10226000D91EE11CF11C89819A8101979A83898387
:10227000892B39F7C701B6010E946F302B013C0151
:10228000C501B4010E946F309B01AC01C301B201D2
:102290000E94D42F69837A838B839C830F2EF4E66C
:1022A0004F2E512C612C712CF02DC501B401A301CE
:1022B00092010E943135B22EA32EC701B601A301AF
:1022C00092010E943135E22ED32EFFB6F89420E021
:1022D00030E04AE754E469817A818B819C810E94D5
:1022E00023310E943C30C62E972EE091620FF09170
:1022F000630F309729F0868997899E838D8304C068
:102300008DE591E09E838D830E94E31B9F92CF9287
:10231000DF92EF92AF92BF9225EE31E03F932F9381
:102320002E812F932D812F939F938F937F936F9364
:102330008EE697E09F938F930E94CA1BFFBE0FB655
:10234000F894DEBF0FBECDBF69817A818B819C81FD
:1023500026960FB6F894DEBF0FBECDBFDF91CF91AA
:10236000FF90EF90DF90CF90BF90AF909F908F90B5
:102370007F906F905F904F9008958F929F92AF9251
:10238000BF92CF92DF92EF92FF923EDF6B017C0112
:1023900020E030E040E85FE30E946C2F4B015C01DD
:1023A000A701960160E070E080E89FE30E946B2F38
:1023B0009B01AC01C501B4010E94D42FFF90EF90A6
:1023C000DF90CF90BF90AF909F908F900895CF9265
:1023D000DF92EF92FF926B017C018EE39FE00E94FF
:1023E000441F80916204813061F0C0924C0FD09202
:1023F0004D0FE0924E0FF0924F0F85E59FE00E9447
:10240000BD1F8EE39FE00E946D1FFF90EF90DF9055
:10241000CF900895CF92DF92EF92FF928EE39FE0EC
:102420000E94441F5898509A209162042130B1F0C4
:10243000C090580FD090590F41E0D4220D2C000CC1
:10244000EE08FF08FE2CED2CDC2CCC248091500FE4
:10245000B701A601482BDB01CA0103C080E090E070
:10246000DC01C22ED12CE12CF12C0B2EB4E1CC0CD2
:10247000DD1CEE1CFF1CBA95D1F7B02DC82AD92A55
:10248000EA2AFB2A8EE39FE00E946D1FC701B60176
:10249000FF90EF90DF90CF9008954F925F926F92F0
:1024A0007F92AF92BF92CF92DF92EF92FF920F9303
:1024B0001F93CF93DF93611571058105910509F491
:1024C00044C10E946D3026E53EE049EC50E40E9494
:1024D00023312B013C0120E030E048EC51E40E9424
:1024E00023319B01AC0165EA74ED88E693E50E9417
:1024F000D42F0E944130B62EA72E862F9A2D7C0114
:10250000A301920165EA74ED88E692E50E94D42F5A
:102510000E944130C62FD72F062F172F7FB6F89471
:10252000E091620FF091630F309719F0C688D78859
:1025300006C00F2EFDE5CF2EF1E0DF2EF02D0E941C
:10254000E31BAF92BF9221ED31E03F932F93DF92D7
:10255000CF929F938F937F936F9380E597E09F93A4
:102560008F930E94CA1B7FBEBFB6F894E091620FA2
:10257000F091630F8DB79EB70C960FB6F8949EBF7F
:102580000FBE8DBF309719F0C688D78806C00F2EB2
:10259000FDE5CF2EF1E0DF2EF02D0E94E31BDF934F
:1025A000CF9321ED31E03F932F93DF92CF929F9312
:1025B0008F937F936F9382E397E09F938F930E9413
:1025C000CA1BBFBE8DB79EB70C960FB6F8949EBFC0
:1025D0000FBE8DBF9AE0E916F10480F0EFEEF1E056
:1025E0008AE090E0C1E021913191820F931FE816BB
:1025F000F90628F0CF5FC83011F0F5CFC0E0C83041
:1026000008F0C7E0D0E09E012F5F3F4F81E090E0EF
:1026100002C0880F991F2A95E2F70197909309014C
:1026200080930801DFB6F894C0900801B0900901CA
:10263000E091620FF091630F309719F0E688F78808
:1026400006C00F2EFDE5EF2EF1E0FF2EF02D0E94CB
:10265000E31BBF92CF92DF93CF9321ED31E03F9305
:102660002F93FF92EF929F938F937F936F938AE1C3
:1026700097E09F938F930E94CA1BDFBE8DB79EB7D2
:102680000E960FB6F8949EBF0FBE8DBF043611058F
:1026900080F0EFEFF1E084E690E0C1E0219131912C
:1026A000820F931F0817190728F0CF5FC83011F069
:1026B000F5CFC0E0C83008F0C7E0D0E09E012F5F42
:1026C0003F4F81E090E002C0880F991F2A95E2F702
:1026D00001979093070180930601FFB6F894E0906C
:1026E0000601D0900701E091620FF091630F3097DF
:1026F00019F00689178902C00DE511E00E94E31B5D
:10270000DF92EF92DF93CF9321ED31E03F932F9350
:102710001F930F939F938F937F936F9382E097E024
:102720009F938F930E94CA1BFFBE10925404109275
:10273000530410925204109251048DB79EB70E9616
:102740000FB6F8949EBF0FBE8DBFDF91CF911F9142
:102750000F91FF90EF90DF90CF90BF90AF907F9060
:102760006F905F904F9008952F923F924F925F929B
:102770006F927F928F929F92AF92BF92CF92DF9291
:10278000EF92FF920F931F93CF93DF93CDB7DEB7F6
:102790006D970FB6F894DEBF0FBECDBF988F8F8BAD
:1027A0008FEF8093500F8FEF91E09093590F8093AC
:1027B000580F80E090E07BD880E090E07EDB60E323
:1027C00075E780E090E00E94B31E21E02A8F3AE096
:1027D0003B8F4AE0498F1A8219821E861D861B8212
:1027E0001C8250E25D8361E46E83212C312C8A8D42
:1027F000882309F425C23B8D232F30E03A8B298BA7
:1028000060910801709109018091530490915404E2
:10281000681B790B072E000C880B990B0E946F30F8
:102820006B017C0169897A8961507109072E000C5E
:10283000880B990B0E946F309B01AC01C701B60158
:102840000E94D42F6B8B7C8B8D8B9E8B60910601AD
:10285000709107018091510490915204681B790B8B
:10286000072E000C880B990B0E946F306B017C01C6
:10287000498D642F70E061507109072E000C880BA0
:10288000990B0E946F309B01AC01C701B6010E94F9
:10289000D42F6F83788789879A8789899A891816B0
:1028A00019066CF0E7C02F82388690E899872FE3ED
:1028B0002A872B8A3C8A30E83D8B4FE34E8B188A5F
:1028C0001F86598D452E512C6091530470915404EC
:1028D000072E000C880B990B0E946F306B017C0156
:1028E0002F853889B901330F880B990B0E946F30FF
:1028F0002B893C894D895E890E9423319B01AC0163
:10290000C701B6010E946C2F0E943C306B877C8708
:102910004F89588D469F9001479F300D569F300D2F
:102920001124C901CADA141415040CF094C0A12CA6
:10293000B12C912C812C6894772475F80F2EF1E43A
:102940006F2EF02D6091510470915204072E000CEF
:10295000880B990B0E946F306B017C01B5010B2C29
:10296000000C880B990B0E946F302F8138854985A8
:102970005A850E9423319B01AC01C701B6010E9418
:102980006C2F0E943C306B017C01CB010E94570CE4
:1029900060E375E780E090E00E94B31E1ADB062F2B
:1029A000172F8D8F9C8F8091550490915604A09184
:1029B0005704B09158040F97A105B1050CF44AC112
:1029C000222D332D40E85FE3602F712F8D8D9C8D7C
:1029D0000E941F31181634F4022D132D80E88D8FBC
:1029E0009FE39C8F2B813C814D815E81602F712FF5
:1029F0008D8D9C8D0E94D02F882364F42B85298394
:102A00003C853A83DE86CD860B831C834D8D4D83BA
:102A10005C8D5E83292D382D472D562D602F712F0B
:102A20008D8D9C8D0E94D02F8823ACF42CE53FE83F
:102A300042E85FE3602F712F8D8D9C8D0E942331C2
:102A4000962E872E782E692E6FEFA61AB60AA4143A
:102A5000B50409F077CF8F8598890196988B8F8779
:102A600029893A89821793070CF42ECF3A8D3323A4
:102A700009F4CFC04D855E85BA01550F880B990BBF
:102A80000E946F304B015C012F81388549855A8542
:102A90000E946B2F6B017C0120E030E0A9010E94B5
:102AA000D02F882334F0C701B6010E943C308B013F
:102AB00002C000E010E010935204009351042F81F3
:102AC000388549855A85C501B4010E946C2F6B0178
:102AD0007C0120E030E04FE753E40E941F311816DC
:102AE00034F0C701B6010E943C303B0103C06624AC
:102AF0006A94712C709207016092060129813A81D3
:102B0000B901330F880B990B0E946F306B017C0168
:102B10002B893C894D895E890E946B2F4B015C019A
:102B200020E030E0A9010E94D02F88233CF0C501AD
:102B3000B4010E943C30788B6F8702C01F86188AD0
:102B40004F85588950935404409353042B893C89F2
:102B50004D895E89C701B6010E946C2F6B017C0113
:102B600020E030E04FE753E40E941F3118162CF0AC
:102B7000C701B6010E943C3002C06FEF70E0CB018C
:102B80002F853889821B930B49895A8984179507A9
:102B90002CF0709309016093080116C081E05F85F5
:102BA000851B860F8B8F6F5F7F4F7093090160933A
:102BB0000801698D6F5F698F8FEF681A780A7092CC
:102BC0000701609206011A8E80910601909107011B
:102BD000AC01401B510B698D262F30E04217530783
:102BE0000CF005CE21E0280F201B298F0196909331
:102BF0000701809306018B8D8F5F8B8F8091080179
:102C000090910901019690930901809308011A8E11
:102C1000EECD8D859E850E94570C2F89388D498178
:102C20005A81249FC001259F900D349F900D11243F
:102C300044D960E375E780E090E00E94B31E0AC0CB
:102C40009B8D892F90E09A8B898B181619060CF4AE
:102C50002ACEDFCF6D960FB6F894DEBF0FBECDBF84
:102C6000DF91CF911F910F91FF90EF90DF90CF9068
:102C7000BF90AF909F908F907F906F905F904F909C
:102C80003F902F9008954F925F926F927F928F9214
:102C90009F92AF92BF92CF92DF92EF92FF920F93EB
:102CA0001F93CF93DF93CDB7DEB72C970FB6F89471
:102CB000DEBF0FBECDBF4B015C0129873A874B8732
:102CC0005C870F2EF6E0EF2EF0E0FF2EF02DDD24D6
:102CD000DA94CC24CA9444244A94542C320100E05F
:102CE00010E048E050E0B701CE0101960E94523753
:102CF0008C819D81AE81BF81AC01BD0141505109E4
:102D0000610971094E3F5F4F6F4F7F4F20F5881566
:102D10009905AA05BB0548F4A5019401281B390BA8
:102D20004A0B5B0BDA01C90104C088199909AA0989
:102D3000BB0984159505A605B70568F429853A856C
:102D40004B855C8582179307A407B50720F4D02E26
:102D5000C12E2C013D010F5F1F4F38E0E30EF11C27
:102D6000043F41E0140709F0BCCFFFB6F894E091AE
:102D7000620FF091630F309719F00689178902C02E
:102D80000DE511E020D5CF92DF9220EB31E03F93AB
:102D90002F931F930F939F938F937F936F938BE545
:102DA00096E09F938F93F6D4FFBE0FB6F894DEBFE4
:102DB0000FBECDBF8D2D9C2D2C960FB6F894DEBF87
:102DC0000FBECDBFDF91CF911F910F91FF90EF907C
:102DD000DF90CF90BF90AF909F908F907F906F903B
:102DE0005F904F900895BF92CF92DF92EF92FF9243
:102DF0000F931F93CF93DF93CDB7DEB728970FB60E
:102E0000F894DEBF0FBECDBF20E137E240E050E0D6
:102E10003ADF9923A4F50F2EF6E0EF2EF0E0FF2E17
:102E2000F02DDD24DA94B12CC12C00E010E048E054
:102E300050E0B701CE0101960E9452374C815D816E
:102E40006E817F8141505109610971094E3F5F4F89
:102E50006F4F7F4F18F0B02E912F12C028852D157F
:102E600018F4B02EC12ED22E0F5F1F4F88E0E80E4F
:102E7000F11C043F81E01807D1F69C2D01C0B82E4B
:102E80008B2D28960FB6F894DEBF0FBECDBFDF9115
:102E9000CF911F910F91FF90EF90DF90CF90BF9057
:102EA00008959F92AF92BF92CF92DF92EF92FF92DE
:102EB0000F931F93CF93DF93CDB7DEB728970FB64D
:102EC000F894DEBF0FBECDBFD62EC72EB82EA92ECA
:102ED00020E432E44FE050E0D6DE8C0199230CF47C
:102EE000D7C0BC01660F771F660F771F660F771F6D
:102EF0006A5F7F4F48E050E0CE0101960E94523752
:102F00009FB6F894E091620FF091630F309719F03B
:102F1000E688F78806C00F2EFDE5EF2EF1E0FF2EC4
:102F2000F02D51D41F930F9321EA31E03F932F935B
:102F3000FF92EF929F938F937F936F9385E396E039
:102F40009F938F9327D49FBEFFB6F894E091620FB2
:102F5000F091630F0FB6F894DEBF0FBECDBF309770
:102F600019F00689178902C00DE511E02CD4AF9243
:102F7000BF92CF92DF9221EA31E03F932F931F93CC
:102F80000F939F938F937F936F9387E196E09F9327
:102F90008F9300D4FFBEFFB6F894EC80DD80CE8026
:102FA000BF80E091620FF091630F0FB6F894DEBF1F
:102FB0000FBECDBF309719F00689178902C00DE505
:102FC00011E001D4BF92CF92DF92EF9221EA31E07B
:102FD0003F932F931F930F939F938F937F936F93A1
:102FE00089EF95E09F938F93D5D3FFBEFFB6F894FA
:102FF000D980CA80EB80E091620FF091630F0FB629
:10300000F894DEBF0FBECDBF309719F0068917893F
:1030100002C00DE511E0D7D3CF92DF921F92EF925D
:1030200021EA31E03F932F931F930F939F938F9348
:103030007F936F938EED95E09F938F93ABD3FFBEFD
:103040000FB6F894DEBF0FBECDBF80910A01882372
:10305000B1F08B8180958093500F89819A8199235B
:1030600034F420E031E0A901481B590BCA018095D6
:1030700090959093590F8093580F10920A018B816D
:1030800090E00E94570C89819A810E945D0F3AC09E
:10309000FFB6F894E091620FF091630F309719F04A
:1030A0000689178902C00DE511E08DD321EA31E0D0
:1030B0003F932F931F930F939F938F937F936F93C0
:1030C00088EB95E09F938F9365D3FFBE0FB6F8947E
:1030D000DEBF0FBECDBF80910A01882359F08FEF6C
:1030E0008093500F8FEF90E09093590F8093580F7B
:1030F00010920A0180E090E00E94570C80E090E07E
:103100000E945D0F28960FB6F894DEBF0FBECDBFAC
:10311000DF91CF911F910F91FF90EF90DF90CF90B3
:10312000BF90AF909F900895CF92DF92EF92FF9261
:103130000F931F93CF93DF93CDB7DEB728970FB6CA
:10314000F894DEBF0FBECDBF60914C0F70914D0F54
:1031500080914E0F90914F0F46DE7C018C01000F45
:10316000111F000F111F000F111F0A5F1F4F48E0B2
:1031700050E0B801CE0101960E94523780914C0F69
:1031800090914D0FA0914E0FB0914F0F8C839D8366
:10319000AE83BF838091500F8B838091580F9091A5
:1031A000590F0E94560F9A83898388858F5F88877D
:1031B00048E050E0B801CE0101960E946A37DFB6C0
:1031C000F894C884E091620FF091630F309719F082
:1031D0000689178902C00DE511E0F5D21F92CF9242
:1031E000FF92EF9220E931E03F932F931F930F93CB
:1031F0009F938F937F936F938FE895E09F938F9327
:10320000C9D2DFBE0FB6F894DEBF0FBECDBF289681
:103210000FB6F894DEBF0FBECDBFDF91CF911F91E7
:103220000F91FF90EF90DF90CF900895EF92FF9273
:103230000F931F93CF93DF93CDB7DEB728970FB6C9
:10324000F894DEBF0FBECDBFFE01319688E0DF01EE
:103250001D928A95E9F706E010E00F2EF6EAEF2EB0
:10326000FFE0FF2EF02D48E050E0B801CE010196BE
:103270000E946A37085F1F4F0E151F05A1F7289699
:103280000FB6F894DEBF0FBECDBFDF91CF911F9177
:103290000F91FF90EF90089500D000D000D0CDB7EF
:1032A000DEB78EE39FE0F0D5DD24D3940F2EFEEE43
:1032B0002F2EF6E03F2EF02D6894882481F80F2EF3
:1032C000F6ED4F2EF6E05F2EF02D0F2EFDE56F2E62
:1032D000F1E07F2EF02D6EE37FE085E59FE017D6CD
:1032E00080914C0F90914D0FA0914E0FB0914F0FC8
:1032F000892B8A2B8B2BA9F4D09262048EE39FE05A
:10330000ECD580E090E00E94570C80E090E00E94B5
:10331000BB0D8EE39FE0B8D510926204589A509A84
:10332000DACFD0926204589A509A8EE39FE0D5D5B6
:103330001FB7F894E091620FF091630F309719F086
:103340000689F78802C0062DF72C3DD22DEC31E01E
:103350003F932F93FF920F939F938F937F936F933E
:103360003F922F9217D21FBF8091210F0FB6F89472
:10337000DEBF0FBECDBF882309F444C160EA76E802
:1033800081E090E0F0D460914C0F70914D0F8091EE
:103390004E0F90914F0F81D881E090E0E5D91FB793
:1033A000F8948091580F9091590F0E94560FF82E63
:1033B000E92E0091500FE091620FF091630F30976A
:1033C00019F0C688B78802C0C62CB72CFCD1EF9282
:1033D000FF921F920F932DEC31E03F932F93BF92FA
:1033E000CF929F938F937F936F935F924F92D2D19F
:1033F0001FBF0E94BD11E62EF72E082F192F0FB602
:10340000F894DEBF0FBECDBF20E030E040EC5FE3BC
:103410006E2D7F2D802F912F0E941F3118160CF0DA
:10342000CDC08091550490915604A0915704B0915D
:1034300058044097A105B1050CF4C0C00E94E90FE3
:1034400069837A838B839C83C090500F8091580F3F
:103450009091590F0E94560F9E838D8360914C0F5F
:1034600070914D0F80914E0F90914F0F16D88FEFA6
:103470009FEF7AD91FB7F8948091580F9091590F08
:103480000E94560FF82EE92E0091500FE091620F26
:10349000F091630F309719F0B688A78802C0B62C58
:1034A000A72C91D1EF92FF921F920F932DEC31E058
:1034B0003F932F93AF92BF929F938F937F936F937E
:1034C0008EEB96E09F938F9365D11FBF0E94BD1135
:1034D000E62EF72E082F192FBFB6F894E091620F51
:1034E000F091630F0FB6F894DEBF0FBECDBF3097DB
:1034F00019F0A688978802C0A62C972C64D11F9338
:103500000F93FF92EF922DEC31E03F932F939F9218
:10351000AF929F938F937F936F9384EA96E09F93EC
:103520008F9338D1BFBE0E94E90F9B01AC010FB64B
:10353000F894DEBF0FBECDBF69817A818B819C81FB
:103540000E94D02F8823D4F58D819E810E945D0F2B
:103550008C2D90E00E94570C60E375E780E090E0CE
:1035600002D40E94BD11E62EF72E082F192FCFB6D8
:10357000F894E091620FF091630F309719F0B688DC
:10358000A78802C0B62CA72C1ED11F930F93FF92C1
:10359000EF922DEC31E03F932F93AF92BF929F9328
:1035A0008F937F936F9381E896E09F938F93F2D0F0
:1035B000CFBE0FB6F894DEBF0FBECDBF8EE39FE047
:1035C00063D48091210F882361F020E030E040E057
:1035D00050E46E2D7F2D802F912F0E941F311816E1
:1035E0001CF48092620403C093E090936204809183
:1035F0006104882319F01ADE1092610495DD589A4F
:10360000509A69CE8EE39FE03FD480926204589A2C
:10361000509A61CE81E0809361040895292F332769
:103620002230310559F02330310569F02130310560
:1036300021F582E190E02DE038E028C08EE390E0B3
:103640002FEC37E023C099278130910551F018F015
:10365000029769F017C0EBECF7E0849190E09F01CE
:1036600015C0E1EBF7E0849190E09F010FC0E3E922
:10367000F7E0849190E09F0109C080E090E020E0B5
:1036800030E004C080E090E020E030E0FA013183D7
:1036900020830895789480915D0F8F3FE1F383B785
:1036A000816083BF889583B78E7F83BFF4CF8AE420
:1036B0009BE18093FF209093FE2008951895DF9161
:1036C000CF911F910F91FF90EF90DF90CF90BF901F
:1036D000AF909F908F907F906F905F904F903F90B2
:1036E0002F901895DF91CF911F910F91FF90EF9040
:1036F000DF90CF90BF90AF909F908F907F906F9012
:103700005F904F903F902F90FF91EF91BF91AF91BD
:103710009F918F917F916F915F914F913F912F91E9
:103720001F900F900FBE0F9018952F913F912F92E1
:103730003F924F925F926F927F928F929F92AF9241
:10374000BF92CF92DF92EF92FF920F931F93CF938E
:10375000DF93A2E7BBE1AF93BF93E091620FF091DB
:10376000630F8DB79EB7808391833F932F93089506
:10377000CF93C82F0E94292F882339F00E942C2F25
:10378000BC018C2F90E00E94AA3681E090E0CF919E
:10379000089508951F93CF93DF93CDB7DEB70E94AE
:1037A000292F882361F01FB7F894AE01485F5F4F5F
:1037B0006E817F818BE091E00E94E6361FBFDF9132
:1037C000CF911F9108950F931F932FB7F894809175
:1037D000A7069091A8066091840070918500B09B27
:1037E0000EC0B09A8091A7069091A806019690937A
:1037F000A8068093A70660918400709185002FBF72
:10380000A0E0B0E0DC0199278827AB0160E070E020
:103810008C019D01042B152B262B372BC901B801D8
:103820001F910F910895FC01A081B181CD010197F5
:10383000918380836C93A081B181CD0101979183A5
:1038400080837C9308952FB7F894FC01118610862D
:103850008781082E000C990B4091640F5091650FE1
:103860004817590724F49093650F8093640F2FBF76
:103870000895DC011C962D913C911D9782179307AA
:1038800079F41796EC91EE0FFF0BE959F04F019088
:10389000F081E02D8FB7F894118210828FBF0895C8
:1038A000FFCFF8942F923F924F925F926F927F9248
:1038B0008F929F92AF92BF92CF92DF92EF92FF9240
:1038C0000F931F93CF93DF9318C41F93CF93DF936E
:1038D000E091620FF091630F309729F11681112367
:1038E00011F1EC01FC010FB6F8948081803009F4ED
:1038F00010830FBE8823B9F0E82FF0E0EE0FFF1F12
:10390000E158F04F6081718140E050E080E090E04C
:10391000C8DFFE010FB6F8948081803009F410836F
:103920000FBE8111E9CFDF91CF911F9108958BE5F3
:103930009FE0CBDFEFE6F0E080818D7F8083109207
:1039400090068091600F9091610F892B09F43DC022
:10395000C8E8D0E0B19AE091600FF091610F8289E0
:103960009389998388831AC08091600F9091610F29
:103970006ADFE091600FF091610F808991899093E7
:10398000610F8093600F892B01F1B19AE091600F74
:10399000F091610F8289938999838883E091600F08
:1039A000F091610FC288D388E488F5880CDFDC01D0
:1039B000CB018C199D09AE09BF09B2F6B199CACFE6
:1039C000EFE6F0E080818260808310925B0F0895C3
:1039D000FC012081222341F0108240E050E060E0B1
:1039E00070E080E090E05DCF0895DF92EF92FF926B
:1039F0000F931F93CF93DF93EC01D62E7A018901A9
:103A00008091620F9091630F892B19F086E69FE0F9
:103A10005CDF80917F0F9091800F892B59F0E1E856
:103A2000FFE081E090E0682FAC0121913191232BE0
:103A300069F403C040E050E060E0440F551FFA0114
:103A4000E158F04FD183C0836E8304C001968A3061
:103A5000910549F78091620F9091630F892B19F0BE
:103A600086E69FE0B5DFC80101978E0D9F1D998303
:103A70008883FB82EA821D830C83DF8281E090E0F1
:103A80009987888785E99BE19B878A87DF91CF911A
:103A90001F910F91FF90EF90DF900895CF93DF93E8
:103AA000EC018CE59FE011DFEF81EE0FFF0BE95990
:103AB000F04F8FB7F8940190F081E02D8FBF3097D1
:103AC00069F4DD87CC87EF81EE0FFF0BE959F04FEA
:103AD0008FB7F894D183C0838FBF09C08485958543
:103AE0009D878C878FB7F894D587C4878FBF8CE567
:103AF0009FE06EDFDF91CF910895DC01ED91FC91A5
:103B00001197309741F42091620F3091630F2D93FC
:103B10003C930895FC01868597850097D9F77787B0
:103B200066870895DC01ED91FC911197E617F70780
:103B3000B9F4268537852D933C931786168608950C
:103B40006817790761F4DB011E968D919C911F9790
:103B5000978786871F961C921E921E970895FC01D8
:103B600086859785009761F708951F920F920FB68B
:103B70000F9211248F939F938091A7069091A8068E
:103B800001969093A8068093A7069F918F910F901E
:103B90000FBE0F901F901895CF92DF92EF92FF9279
:103BA0000F931F93CF93DF93EC018BE59FE08DDEA6
:103BB000A091600FB091610FAC17BD07D9F450967A
:103BC0008D919C9151979093610F8093600FC1E00C
:103BD0003CC080899189C817D90731F0FC01309722
:103BE00021F5C0E032C0FD0188899989918B808BD5
:103BF000C1E02BC0109731F14A895B896C897D89BE
:103C000052960D911D912D913C9155976A017B0122
:103C1000C01AD10AE20AF30ABAF05096ED91FC916B
:103C20005197CE17DF07D9F6DECF82899389A48911
:103C3000B5897A018B01E81AF90A0A0B1B0B4AF6BF
:103C4000C0E003C0C0E001C0C0E08BE59FE0C0DE83
:103C50008C2FDF91CF911F910F91FF90EF90DF900C
:103C6000CF900895CF92DF92EF92FF920F931F9320
:103C7000CF93DF93EC014A8B5B8B6C8B7D8BA09198
:103C8000600FB091610F109769F06A017B01529645
:103C90000D911D912D913C915597041B150B260BF1
:103CA000370B22F1FC01B18BA08B9093610F8093B5
:103CB000600F5093890040938800B19AAFE6B0E05E
:103CC0008C9182608C93C288D388E488F5887BDDF0
:103CD000DC01CB018C199D09AE09BF09FAF0809176
:103CE0005E0F90915F0FAFDD19C0DF015096ED912F
:103CF000FC915197309759F04289538964897589AD
:103D000097018601041B150B260B370B72F7EC018C
:103D1000F98BE88B51969C938E935097DF91CF91BE
:103D20001F910F91FF90EF90DF90CF900895CF9269
:103D3000DF92EF92FF926B017C018BE59FE0C5DD86
:103D4000B701A6018091620F9091630F8BDF4BE565
:103D50005FE060E070E081E090E0A3DDFF90EF9035
:103D6000DF90CF900895CF92DF92EF92FF926B0198
:103D70007C0129DD689416F8F694E794D794C794EB
:103D80001694D1F72FE3E222FF246C0D7D1D8E1DCA
:103D90009F1DCDDFFF90EF90DF90CF900895CF93E0
:103DA000DF93EB016091620F7091630FA6DEAE01AD
:103DB00060E070E081E090E074DDDF91CF910895E4
:103DC0008F929F92AF92BF92EF92FF920F931F93A9
:103DD000CF93DF9300D000D000D0CDB7DEB77C0109
:103DE0008B0149015A0186E0EDE0F2E0DE01119617
:103DF00001900D928A95E1F76091620F7091630FC7
:103E0000C7017BDE8BE59FE060DDB501A4018091F9
:103E1000620F9091630F26DFF89410925B0FA80158
:103E200060E070E081E090E03CDD8091620F909175
:103E3000630FB2DEC80149DD6091620F7091630FBC
:103E4000C70170DEC801C4DD80E026960FB6F89485
:103E5000DEBF0FBECDBFDF91CF911F910F91FF90BD
:103E6000EF90BF90AF909F908F900895FC0180815C
:103E70009181009741F0DC011E962D913C911F9796
:103E800031832083E0CC0895CF93DF93EC011DDDD7
:103E9000898181110BC0E091620FF091630F30971F
:103EA00009F086818983CE0193DD13C0E091620F12
:103EB000F091630F309749F09681891306C08A818B
:103EC0008F5F8A83CE0184DD04C0BE01CE010396DC
:103ED00066DF8A81DF91CF910895CF93DF93EC0164
:103EE000F4DC8A81882319F081508A830BC0EB812E
:103EF000FC81309711F4198205C086818983CE0137
:103F00000396B4DFCE0164DDDF91CF9108950F9366
:103F10001F93CF93DF93EC018B01D7DCC801DDDF6A
:103F2000BE01CE0101963BDFC801AEDFDF91CF912C
:103F30001F910F910895CF92DF92EF92FF920F930E
:103F40001F93CF93DF93EC018B0169017A01BDDCF4
:103F5000C801C3DFA7019601BE01CE01019630DF83
:103F6000C82FC80191DF8C2FDF91CF911F910F9146
:103F7000FF90EF90DF90CF900895CF93DF93EC0107
:103F8000A4DC89819A81892B19F0CE0101966EDF1C
:103F9000CE011EDDDF91CF910895EFE6F0E0808144
:103FA0008B7F808381E080935A0F83B7817F846009
:103FB00083BF83B7816083BF889583B78E7F83BFBC
:103FC00083B790915D0F817F892B83BF10925A0F29
:103FD00040E050E060E070E080E090E062CC089566
:103FE000F8940FB6F894A89580916000886180934A
:103FF0006000109260000FBED0DFFECF80915A0F9C
:1040000081114BC04091640F5091650FDA01AA0FE6
:10401000BB1FA759B04F3E912E9121153105A9F133
:10402000F90180859185892B51F55093650F409357
:10403000640F8091620F9091630FE817F90721F0E8
:10404000F093630FE093620F2091620F3091630F42
:104050000484F585E02D80859185892BC9F7E217C9
:10406000F307B1F7440F551FFA01E959F04F3183B7
:104070002083EFE6F0E080818B7F808308950484C5
:10408000F585E02D2E173F0761F6415051091AF6CC
:104090005093650F4093640FA3CF0895E091620F92
:1040A000F091630F0280F381E02D918380838CE592
:1040B0009FE00BDCEFE6F0E080818B7F808381E086
:1040C00080935A0F8091620F9091630F22E030E04D
:1040D000FC0131872087CDDBF89410925C0F1092A1
:1040E0005A0F8CDFE091620FF091630F0190F08125
:1040F000E02DCF018DBF9EBF08959C01AFE5BBE1D0
:10410000AF93BF93E091620FF091630F8DB79EB7AD
:1041100080839183EAEFF0E2CF018DBF9EBF41150E
:10412000510511F0FA011082E091620FF091630FD6
:10413000318720876115710529F07093630F6093B3
:10414000620F01C05BDFE091620FF091630F01909D
:10415000F081E02DCF018DBF9EBF08950F920FB665
:104160000F921F9211242F933F934F935F936F935E
:104170007F938F939F93AF93BF93EF93FF93E091C0
:10418000620FF091630F0284F385E02D0995EAEF49
:10419000F0E2CF018DBF9EBF31DFE091620FF09161
:1041A000630F0190F081E02DCF018DBF9EBF089578
:1041B0000F920FB60F921F9211242F933F934F939C
:1041C0005F936F937F938F939F93AF93BF93EF937F
:1041D000FF93E091620FF091630F0284F385E02D6D
:1041E0000995EAEFF0E2CF018DBF9EBF8091900666
:1041F0008F5F8093900680918F0681110AC081E0C5
:1042000080938F0680915E0F90915F0F009709F069
:104210001ADBF4DEE091620FF091630F0190F08100
:10422000E02DCF018DBF9EBF0895F894A5E1B1E2C6
:10423000AF93BF93A7E9BCE1AF93BF938091900682
:10424000882309F0189510928F06E091620FF09183
:10425000630F81E090E091878087E0915E0FF0919D
:104260005F0F8DB79EB780839183EAEFF0E2CF01B5
:104270008DBF9EBFC3DEE091620FF091630F01908E
:10428000F081E02DCF018DBF9EBF089520E130E089
:104290008D98992314F48E9A01C08E988D9A880F68
:1042A000991F21503109A1F78E988C9A62E370E032
:1042B00080E090E058DD8C9808958AE99FE0E4DD85
:1042C0006AE97FE087E99FE022DEEE24E394F12CA7
:1042D00002E010E0C091950F8AE99FE0FEDD8C2F8F
:1042E000880F970102C0220F331F8A95E2F7C90198
:1042F000CDDF60E375E780E090E035DD8091960FDB
:10430000880F980102C0220F331F8A95E2F7C90176
:10431000BDDF60E177E280E090E025DD80E090E0C5
:10432000B5DF8AE99FE0B0DDC093960F8091950FCD
:10433000C813D0CF6AE97FE087E99FE0E8DDCACF04
:10434000CF92DF92EF92FF920F931F93CF93DF9361
:104350008D98859A8C98849A8E98869A80E090E0C1
:104360000E946237873008F453C086E08093960F2E
:1043700051C08091960F90E08017910719F08E2D13
:104380009F2D02C08C2D9D2D9801220F331F02C03E
:10439000880F991F2A95E2F7C82BD92BCE0176DF1B
:1043A00064EF71E080E090E0DEDC0F5F1F4F0730CC
:1043B0001105F9F660E177E280E090E0D4DC00E0FE
:1043C00010E00F2EF3E0EF2EF12CF02DC701002EA0
:1043D00002C0880F991F0A94E2F780959095C82330
:1043E000D923CE0153DF64EF71E080E090E0BBDCC5
:1043F0000E5F1F4F0E30110549F781E090E00E94DB
:10440000623791E0811101C090E0909319010EC0D4
:104410008093960F00E010E0C0E0D0E0CC24C3947D
:10442000D12C6894EE24E1F8F12CA3CFDF91CF9149
:104430001F910F91FF90EF90DF90CF9008950F9311
:104440001F93CF93809119018823D9F10091A20F76
:104450001091A30F2091A40F3091A50F80911A0104
:1044600090911B01A0911C01B0911D018017910733
:10447000A207B30770F4EEE1F1E081E090E0419132
:10448000519161917191401751076207730728F0AC
:1044900002C080E090E0C82F05C0019687309105EA
:1044A00071F7C6E08AE99FE0EFDC8091960FC817AC
:1044B00029F0C093950F87E99FE05FDD8AE99FE0CF
:1044C0000CDDCF911F910F910895809119018111F9
:1044D00009C081E08093190161E081E090E00E94D1
:1044E0007337ADCF0895809119018823B9F01092E8
:1044F000190160E081E090E00E9473378AE99FE053
:10450000C3DC8091960F863031F086E08093950F62
:1045100087E99FE032DD8AE99FE0DFCC0895CF9301
:1045200080911901882351F08AE99FE0ADDCC091A8
:10453000950FCF5F8AE99FE0D0DC01C0C0E08C2FEF
:10454000CF910895863048F0609132017091330127
:1045500080913401909135010895E82FF0E0EE0F3D
:10456000FF1FEE0FFF1FE65EFE4F608171818281AB
:1045700093810895829A85EB9FE086DC8091A70F56
:104580009091A80F892B51F08091A70F9091A80FBF
:1045900001979093A80F8093A70F02C01092A60FC7
:1045A00085EB9FE09ADC7A9A60EA76E881E090E019
:1045B000DADBE1CF68EE73E080E090E0D4DB0E94CC
:1045C0004D2FCFB7F8940E942F2F1816190614F408
:1045D0000E946B08CFBF60E27EE480E090E0C3DB26
:1045E000F0CF8B98839A5998519A89EA9FE04CDCD6
:1045F000C1E0E9D80091220F1091230F2091240FE0
:104600003091250F68017901C61AD70AE80AF90A1C
:1046100092F08B9A599AC093210F2091220F3091DA
:10462000230F4091240F5091250F69EA7FE08FE915
:104630009FE081DCDECF59988B981092210F69EAB8
:104640007FE08FE99FE063DCD4CFEF92FF920F937E
:104650001F93CF93DF938C01FC018081D3E0C82F9F
:10466000C09586E391E0EAD40F2EF6E3EF2EF1E059
:10467000FF2EF02DF7011386CEBDC701E7D4F70159
:1046800012868EB5F8014081518162817381762F47
:10469000652F542F4427482B4083518362837383B3
:1046A000D150E9F6C82FC095C701C8D4F7011386C9
:1046B000CEBDC701CBD4F70112868EB5DF91CF9165
:1046C0001F910F91FF90EF900895CF92DF92EF929C
:1046D000FF920F931F93CF93DF936B017C01C4E094
:1046E000DF2DD09586E391E0A9D406E311E0F8012F
:1046F0001386DEBDC801AAD4F80112868EB5FE2C41
:10470000ED2CDC2CCC24C15059F7DF91CF911F91B7
:104710000F91FF90EF90DF90CF900895CF92DF92AE
:10472000EF92FF92CF93DF93EC0189EA9FE0ACDB3D
:104730004AD86B017C019E01A0E4BFE10E944D3587
:10474000DC01CB01072E7AE0B695A7959795879562
:104750007A95D1F7702DC80ED91EEA1EFB1EC092A5
:10476000220FD092230FE092240FF092250F8FE9B1
:104770009FE003DC89EA9FE0B0DBDF91CF91FF90FF
:10478000EF90DF90CF90089589EA9FE07DDB1BD802
:104790006093220F7093230F8093240F9093250F23
:1047A0008FE99FE0EADB89EA9FE097CB0895CF92FB
:1047B000DF92EF92FF926B017C0180EB9FE064DB64
:1047C0008091200F8431B8F4E091200FF0E0EE0FDB
:1047D000FF1FEE0FFF1FE054F04FC082D182E28234
:1047E000F3828091200F8F5F8093200F80EB9FE0FA
:1047F00074DB81E007C081E080931F0F80EB9FE0B6
:104800006CDB80E0FF90EF90DF90CF90089500D0B8
:1048100000D0CDB7DEB78FD386E391E08DD31FEF05
:1048200086E391E00BD40F2EF6E3EF2EF1E0FF2E9E
:10483000F02DF70113861EBDC70108D4F7011286BB
:104840008EB5C82ED12CE12CF12CC982DA82EB82F4
:10485000FC82843049F130F48230A1F0E0F4813000
:1048600041F0DECF863091F140F1873009F43EC04F
:10487000D7CFCE010196E9DE69817A818B819C8157
:1048800096DFCECFCE010196E0DE69817A818B8101
:104890009C818DDFC5CFCE010196D7DE69817A81FB
:1048A0008B819C8184DFBCCFCE010196CEDE6981F5
:1048B0007A818B819C817BDFB3CFCE010196C5DEEF
:1048C00069817A818B819C8172DFAACF0E940A1252
:1048D000FC2CEE24DD24CC246C297D298E299F29F3
:1048E00069837A838B839C83F0DE9ACFBC2DAA27C1
:1048F00099278827BC01CD01826069837A838B83E5
:104900009C83E3DE8DCFEF92FF921F93CF93DF93D3
:104910007C0180EB9FE0B8DA80911F0F882351F172
:104920001FB7F894E091620FF091630F309719F080
:10493000C689D78902C0CDE5D1E00E94E31B28E1FA
:1049400032E03F932F93DF93CF939F938F937F9387
:104950006F938BE899E09F938F930E94CA1B1FBFB0
:1049600010921F0F8DB79EB70A960FB6F8949EBF90
:104970000FBE8DBF8091200F8823E1F08091200F22
:1049800081508093200FE091200FF0E0EE0FFF1F89
:10499000EE0FFF1FE054F04F80819181A281B3811F
:1049A000F70180839183A283B38380EB9FE095DA44
:1049B00081E004C080EB9FE090DA80E0DF91CF914E
:1049C0001F91FF90EF900895CDB7DEB727970FB6F0
:1049D000F894DEBF0FBECDBFFFB6F894E091620F32
:1049E000F091630F309719F00689178902C00DE521
:1049F00011E00E94E31B23E132E03F932F931F93CA
:104A00000F939F938F937F936F938EE699E09F937D
:104A10008F930E94CA1BFFBE93DC0E94670FFFB6F4
:104A2000F894E091620FF091630F0FB6F894DEBF37
:104A30000FBECDBF309719F00689178902C00DE56A
:104A400011E00E94E31B23E132E03F932F931F9379
:104A50000F939F938F937F936F938BE499E09F9332
:104A60008F930E94CA1BFFBE589A509A0FB6F894B3
:104A7000DEBF0FBECDBF0F2EF3E16F2EF2E07F2E13
:104A8000F02D0F2EFFE12F2EF8E03F2EF02DCE015E
:104A9000019639DF882309F42AC2C980DA80EB80C5
:104AA000FC808F2D9927AA27BB2784309105A1056B
:104AB000B10509F433C168F482309105A105B1054F
:104AC00009F4D6C008F003C10197A105B10579F03A
:104AD000EBC186309105A105B10509F499C108F42F
:104AE00068C10797A105B10509F4B8C1DDC10E94ED
:104AF0000A12DC01CB01072E74E1B695A7959795B4
:104B000087957A95D1F7702D0197A105B10509F424
:104B1000EEC1C980DA80EB80FC80D701C601AF739B
:104B2000BB27880F991FAA1FBB1F880F991FAA1F99
:104B3000BB1F880F991FAA1FBB1F880F991FAA1F91
:104B4000BB1F8093A20F9093A30FA093A40FB093C9
:104B5000A50F460157018824992490E8A922BB2477
:104B60001FB7F8940091A20F4090A30F2091A40FBB
:104B70002D835090A50FE091620FF091630F309755
:104B800029F036893E8387898F8304C02DE531E083
:104B90002E833F830E94E31B5F922D812F934F92C0
:104BA0000F937F926F923F813F932E812F939F931C
:104BB0008F937F936F938FE199E09F938F930E94E0
:104BC000CA1B1FBF6091A20F7091A30F8091A40F09
:104BD0009091A50F0E944D120FB6F894DEBF0FBE44
:104BE000CDBF89288A288B2861F16FDC28DC1FB7AC
:104BF000F89495DCA82EE091620FF091630F309746
:104C000019F00689B78804C02DE531E0022FB32ED4
:104C10000E94E31B1F92AF927F926F92BF920F93FD
:104C20009F938F937F936F9387E099E09F938F93E8
:104C30000E94CA1B1FBF0FB6F894DEBF0FBECDBFC8
:104C400001C051DCE6FE0BC06091A20F7091A30F72
:104C50008091A40F9091A50F0E94511748C180E048
:104C600090E00E94570C80E090E00E945D0F3FC1F1
:104C70008091210F811127C01FB7F894E091620F36
:104C8000F091630F309719F00689B78804C02DE5BD
:104C900031E0022FB32E0E94E31BDF92CF927F926E
:104CA0006F92BF920F939F938F937F936F9386ED35
:104CB00098E09F938F930E94CA1B1FBF0FB6F89472
:104CC000DEBF0FBECDBF8C2D9D2D28DD10C15CDD5C
:104CD0001FB7F894E091620FF091630F309719F0CD
:104CE0000689F78804C02DE531E0022FF32E0E94DB
:104CF000E31B7F926F92FF920F939F938F937F930B
:104D00006F9387EB98E09F938F930E94CA1B1FBFFE
:104D10000FB6F894DEBF0FBECDBFE9C085EB9FE0B4
:104D2000B3D824E130E03093A80F2093A70F8091EF
:104D3000A60F80FD05C08091A60F8F5F8093A60F00
:104D40008091A60F8A3038F11FB7F894E091620F76
:104D5000F091630F309719F00689F78804C08DE54C
:104D600091E0082FF92E0E94E31B7F926F92FF9231
:104D70000F939F938F937F936F9327E938E03F932F
:104D80002F930E94CA1B1FBF0E940A1B0FB6F894E4
:104D9000DEBF0FBECDBF85EB9FE09FD86091A20F15
:104DA0007091A30F8091A40F9091A50F0E94E7111D
:104DB0009EC01FB7F894E091620FF091630F309797
:104DC00019F00689F78804C08DE591E0082FF92EC7
:104DD0000E94E31B7F926F92FF920F939F938F939A
:104DE0007F936F9322E738E03F932F930E94CA1B73
:104DF0001FBF8091A60F0FB6F894DEBF0FBECDBFC8
:104E000080FF75C08091A60F8F5F8093A60F6FC043
:104E10001FB7F894E091620FF091630F309719F08B
:104E20000689F78804C08DE591E0082FF92E0E94CD
:104E3000E31B7F926F92FF920F939F938F937F93C9
:104E40006F9326E538E03F932F930E94CA1B1FBF44
:104E50000FB6F894DEBF0FBECDBF49C01FB7F894A0
:104E6000E091620FF091630F309719F00689F7888F
:104E700004C08DE591E0082FF92E0E94E31B7F927C
:104E80006F92FF920F939F938F937F936F9329E37A
:104E900038E03F932F930E94CA1B1FBF0FB6F894B0
:104EA000DEBF0FBECDBF23C01FB7F894E091620FE5
:104EB000F091630F309719F00689F78804C08DE5EB
:104EC00091E0082FF92E0E94E31B7F926F92FF92D0
:104ED0000F939F938F937F936F933F922F920E9494
:104EE000CA1B1FBF0FB6F894DEBF0FBECDBF60E177
:104EF00077E280E090E00E94B31EC9CDCF93DF93AC
:104F0000EC018091620F9091630F90931110809348
:104F10001010F8948CB580688CBD40E050E060E0E3
:104F200070E081E090E00E94511C81E08B878A87CD
:104F3000DF91CF9108950895CF93DF93EC0186E23E
:104F40009FE00E94441FE4E6F0E080818B7F808335
:104F500089858031A1F038F4843061F0883031F1F6
:104F6000823079F51EC0803481F08038A1F0803223
:104F700041F522C01CBC8DB58E7F8DBD22C081E065
:104F80008CBD8DB58E7F8DBD1CC082E08CBD8DB576
:104F90008E7F8DBD16C083E08CBD8DB58E7F8DBD9F
:104FA00010C01CBC8DB581608DBD0BC081E08CBD77
:104FB0008DB581608DBD05C082E08CBD8DB58160F1
:104FC0008DBD88819981892B49F48CB580618CBD18
:104FD000219A8A81882341F0229A06C08CB58F7E5F
:104FE0008CBD8A818111239A8B819C81892B21F030
:104FF0008CB58F7D8CBD03C08CB580628CBD8D81DE
:105000009E81892B21F48CB5877F8CBD03C08CB524
:1050100088608CBD8F819885892B21F48CB58B7F1E
:105020008CBD03C08CB584608CBD81E08B871A86F3
:105030008CB580648CBDDF91CF910895FC012385F0
:10504000211103C00DB407FE59CF0895FC0122853C
:10505000211103C00DB407FE51CF08950F920FB672
:105060000F921F9211242F933F934F935F936F934F
:105070007F938F939F93AF93BF93EF93FF93E091B1
:10508000620FF091630F0284F385E02D0995E0EE45
:10509000F0E2CF018DBF9EBF8CB58F778CBD809124
:1050A000101090911110009711F00E94231C0E9483
:1050B000FE1FE091620FF091630F0190F081E02DEF
:1050C000CF018DBF9EBF0895CF93DF93EC01FC010C
:1050D00070968BE0DF011D928A95E9F782E08C8360
:1050E000898783E08E8761E0CE010196ECD2882328
:1050F00051F061E0CE010696E6D2882321F061E00E
:10510000CE010B96E0D2DF91CF910895CF93FC01B1
:10511000909116109430E9F484899589A689B7890D
:10512000892B8A2B8B2BB9F0C62F81818F708093AE
:10513000E9008091E80085FD08C0E8EEF0E080819C
:105140008E77808333D3811107C0C093F10080E054
:1051500003C082E001C082E0CF910895FB01682F77
:1051600084859585D3DF21E030E0811102C020E005
:1051700030E088279927821B930B0895FC019091BA
:105180001610943019F584899589A689B789892BD9
:105190008A2B8B2BE9F081818F708093E9008091BD
:1051A000F2009091F300892BA9F0E8EEF0E09081F5
:1051B00080818E77808395FD0FC0F8D281110DC05C
:1051C000E8EEF0E090819E779083089582E0089564
:1051D00082E0089580E0089580E00895FC019091B8
:1051E0001610943091F484899589A689B789892B02
:1051F0008A2B8B2B51F081818F708093E9008091F5
:10520000E80080FF02C0CF01B9CF089520911610A9
:10521000243059F5FC014489558966897789452BE5
:10522000462B472B29F186818F708093E90080916E
:10523000E80082FF20C08091F2009091F300892B5A
:1052400021F02091F10030E002C02FEF3FEF80917C
:10525000F2009091F300892B89F4E8EEF0E0808170
:105260008B778083822F932F08958FEF9FEF089580
:105270008FEF9FEF08958FEF9FEF0895822F932F69
:105280000895FC0184859585C1DF992314F48EEF80
:105290009FEF0895FB012EE0DB011D922A95E9F7AF
:1052A00023E023832EEA38E23187208721E439E2A4
:1052B000338722879587848708950895CF93DF9356
:1052C000FC019091E80093FF96C0208130E080912E
:1052D0001B1090911C108217930709F08CC0EF01EE
:1052E00080911810813259F018F48032B9F183C0DE
:1052F000823209F45FC0833209F46FC07CC08091B0
:105300001710813A09F077C0E8EEF0E08081877FDE
:105310008083808180FFFDCF8C899D89AE89BF8984
:10532000E1EFF0E08083492F5A2F6B2F77274083DE
:10533000AD016627772740838B2F9927AA27BB27A4
:105340008083888D8083898D80838A8D8083E8EE39
:10535000F0E080818E77808305D24DC08091171058
:10536000813209F048C0E8EEF0E08081877F8083D9
:1053700005C080911610882309F43DC0808182FF0A
:10538000F8CFE1EFF0E030812081908180813C8B8B
:105390002D8B9E8B8F8B8081888F8081898F8081E0
:1053A0008A8FE8EEF0E080818B778083DBD1CE01BD
:1053B00084DF21C0809117108132E9F4E8EEF0E03B
:1053C0008081877F8083CED18091191090911A10AF
:1053D000998B888BCE0179D50EC0809117108132C0
:1053E00051F4E8EEF0E08081877F8083BBD160914B
:1053F0001910CE0162DFDF91CF910895EF92FF92F5
:105400000F931F93CF93DF9320911D1030911E10A7
:105410002617370758F06115710539F4E8EEF0E00A
:1054200020812E7720839B0101C09B01A82FB92FDB
:1054300090E0E8EEF0E062EF70E00F2EF1EFEF2E7B
:10544000F12CF02D11E000E02FC080911610882380
:1054500009F441C0853009F440C0808183FD3FC01C
:10546000808182FD31C0808180FF1EC0EB014881B8
:1054700059812115310581F04830510568F48D912D
:10548000E7018883215031094F5F5F4F21153105B6
:1054900019F04830510599F7912F4830510509F01E
:1054A000902F80818E7780832115310571F69111BF
:1054B000CCCF0AC080911610882399F0853099F0DE
:1054C000808183FF03C011C0E8EEF0E0808182FF9D
:1054D000F1CF80E00BC082E009C083E007C081E02B
:1054E00005C082E003C083E001C081E0DF91CF917D
:1054F0001F910F91FF90EF900895EF92FF920F93FD
:105500001F93CF93DF9320911D1030911E1026170B
:10551000370758F06115710539F4E8EEF0E02081A5
:105520002E7720839B0101C09B01E82FF92F90E08B
:10553000A8EEB0E062EF70E00F2EF1EFEF2EF12C4D
:10554000F02D11E000E030C080911610882309F49E
:1055500042C0853009F441C08C9183FD40C08C91DC
:1055600082FD32C08C9180FF1FC0EB0148815981C0
:105570002115310589F04830510570F48491E70117
:1055800088833196215031094F5F5F4F21153105D6
:1055900019F04830510591F7912F4830510509F025
:1055A000902F8C918E778C932115310569F691118E
:1055B000CBCF0AC080911610882399F0853099F0DE
:1055C000808183FF03C011C0E8EEF0E0808182FF9C
:1055D000F1CF80E00BC082E009C083E007C081E02A
:1055E00005C082E003C083E001C081E0DF91CF917C
:1055F0001F910F91FF90EF9008958F929F92BF920D
:10560000CF92DF92EF92FF920F931F93CF93DF938E
:10561000873070F126C0292F2F70E7012883891762
:1056200031F0E80178812081E401588103C0242F02
:10563000762F5B2D21FF12C03C913E7F3C93308141
:105640003D7F30833C9131603C93E8017883208337
:10565000E4015883E6012881222344F49F5F9730B8
:10566000D1F68F708093E90081E021C080E01FC0F7
:10567000982F9F709093E900982F242F762F50E059
:10568000ABEEB0E0EDEEF0E00CEE10E00F2EF0EF40
:105690008F2E912CF02D0F2EFEEECF2ED12CF02D33
:1056A0000F2EF9EEEF2EF12CF02DB12CC3CFDF91A0
:1056B000CF911F910F91FF90EF90DF90CF90BF900F
:1056C0009F908F900895EF92FF920F931F93CF9327
:1056D000DF936623E9F1062FC82FD92F10E00F2E94
:1056E000F6E0FF2EF02D6894EE24E1F85881552362
:1056F00049F19C81E981FA816B81852F8F70873018
:1057000048F5923010F44E2D01C04F2DE930F105CF
:1057100050F028E030E090E09F5F220F331F2E17FB
:105720003F07D0F301C090E09295907F492B90E421
:10573000699FB0011124551F5527551F652B5DDF4B
:10574000882349F01F5F25960113D0CF81E003C065
:1057500081E001C080E0DF91CF911F910F91FF9018
:10576000EF90089580911710882344F0E8EEF0E060
:1057700014C080911610811103C00895E8EEF0E086
:10578000808182FFF6CFE8EEF0E080818B77808326
:10579000089580911610882341F0808180FFF9CF11
:1057A000E8EEF0E080818E77808308950F931F9359
:1057B000CF93DF932091E4003091E50065E6ACEEF5
:1057C000B0E0E8EEF0E00BEE10E044EE50E001C097
:1057D0009C019C91892F817090FD1DC020C08091FB
:1057E0001610882381F0853081F0E801888185FDDD
:1057F0000EC0EA01888199812817390751F3615059
:1058000039F784E00FC082E00DC083E00BC081E077
:1058100009C080E007C0808180FFE1CFFACF90818E
:1058200092FFDDCFDF91CF911F910F9108950F93DC
:105830001F93CF93DF934FD056D0C8EDD0E088812F
:105840008F77888388818068888388818F7D88832B
:10585000E7EDF0E080818068808319BC109216101B
:1058600010921210109214101092131000EE10E00B
:10587000F80180818B7F808388818160888342E00A
:1058800060E080E0BADEE1EEF0E080818E7F808330
:10589000E2EEF0E080818160808380818860808397
:1058A000F80180818E7F8083888180618883DF9189
:1058B000CF911F910F910895E8EDF0E080818F7EE8
:1058C0008083E7EDF0E080818160808381E08093D8
:1058D0001510ADCF0895E8EDF0E080818C7F8083D6
:1058E0001092E20008951092DA001092E1000895FB
:1058F0001F920F920FB60F9211240BB60F922F9397
:105900003F934F935F936F937F938F939F93AF9347
:10591000BF93EF93FF938091E10082FF0AC08091D3
:10592000E20082FF06C0E1EEF0E080818B7F8083A1
:1059300075D28091DA0080FF1DC08091D80080FF71
:1059400019C0EAEDF0E080818E7F80838091D900DC
:1059500080FF0CC08CE089BD8EE089BD09B400FEDB
:10596000FDCF81E080931610A0D204C019BC109224
:1059700016109ED28091E10080FF16C08091E20057
:1059800080FF12C0E2EEF0E080818E7F8083808114
:1059900080618083E8EDF0E080818062808319BCC3
:1059A00085E0809316103AD28091E10084FF2FC0E9
:1059B0008091E20084FF2BC08CE089BD8EE089BD20
:1059C00009B400FEFDCFE8EDF0E080818F7D80839B
:1059D000E1EEF0E080818F7E8083E2EEF0E0808176
:1059E0008F7E8083808181608083809112108823E4
:1059F00021F084E08093161009C08091E300882391
:105A000014F081E001C083E08093161007D28091EA
:105A1000E10083FF23C08091E20083FF1FC0E1EE1D
:105A2000F0E08081877F808382E08093161010925F
:105A3000121080818E7F8083E2EEF0E080818E7F85
:105A4000808380818061808342E060E080E0D5DDFA
:105A5000E0EFF0E0808188608083E0D1FF91EF91FA
:105A6000BF91AF919F918F917F916F915F914F9176
:105A70003F912F910F900BBE0F900FBE0F901F9074
:105A800018951F920F920FB60F9211240BB60F921A
:105A9000EF92FF920F931F932F933F934F935F9338
:105AA0006F937F938F939F93AF93BF93CF93DF9326
:105AB000EF93FF93C091E900CF708091EC00D82F55
:105AC000D17080FDD0E80F2EF9EEEF2EF12CF02DE5
:105AD000F701108200EF10E0F8018081877F80835A
