:1000000091C0000049C2000047C2000045C2000084
:1000100043C2000041C200003FC200003DC20000D8
:100020003BC2000039C200000C944B170C941A1804
:1000300033C2000031C200002FC200002DC20000F8
:100040002BC200000C94710F0C94470F25C20000C6
:100050000C949D0C21C200001FC200001DC20000B4
:100060000C94971319C2000017C2000015C20000BB
:1000700013C2000011C200000FC200000DC2000038
:100080000BC2000009C2000007C2000005C2000048
:1000900003C2000001C200001C034C0055004600D2
:1000A000410020004300440043002000440065005C
:1000B0006D006F00000018034400650061006E00D1
:1000C0002000430061006D006500720061000000C7
:1000D0000403090409023E00020100C032090400C1
:1000E000000102020100052400100104240206059B
:1000F00024060001070582030800FF09040100022D
:100100000A0000000705040210000507058302101D
:1001100000051201100102000008EB034420010059
:100120000102DC0111241FBECFEFD0E2DEBFCDBF44
:1001300014BE0FB6F894A8958091600088618093F2
:100140006000109260000FBEE1E6F0E080E880837E
:10015000108211E0A0E0B1E0E6E5FFE300E00BBFB4
:1001600002C007900D92A235B107D9F72FE0A2E5A2
:10017000B1E001C01D92A537B207E1F7EAEFF0E266
:10018000CF018DBF9EBF26E030E04AEF50E260E035
:1001900081E398E00E94EC0BE1E3F8E08FE89AE05D
:1001A00092878187A081B181CD010197918380835E
:1001B00082E89AE08C93A081B1819D0121503109A0
:1001C000318320839C93CF010E94370C81E398E018
:1001D0000E94300B20E034E04AE154E065E08AE11F
:1001E00098E00E94EC0B6AEE7EE08AE198E00E94C3
:1001F000200B67E972E18AE198E00E94200B66E932
:100200007AE08AE198E00E94200B8AE198E00E945F
:10021000370C8AE198E00E94300BE4E6F0E0808140
:10022000877F80831092800081E080936F0085E05B
:10023000809381008BE790E290930101809300010D
:1002400020E032E047E651E065E087E693E00E9477
:10025000EC0B6AEE7EE087E693E00E94200B6BEEEB
:1002600079E087E693E00E94200B66E97AE087E672
:1002700093E00E94200B87E693E00E94370C87E60C
:1002800093E00E94300B87E693E09093D50E809325
:10029000D40E20E830E045E853E06BE085E094E0E0
:1002A0000E94EC0B6EEA7FE085E094E00E94200B58
:1002B0006AE97BE085E094E00E94200B66E97AE041
:1002C00085E094E00E94200B85E094E00E94370CCA
:1002D00085E094E09093E50E8093E40E20E830E012
:1002E00048E458E066E088EC98E00E94EC0B6AEE87
:1002F0007EE088EC98E00E94200B64EF7FE088ECC1
:1003000098E00E94200B66E97AE088EC98E00E9471
:10031000200B88EC98E00E94370C88EC98E00E9453
:10032000300B88EC98E090932E0F80932D0F20E8EF
:1003300030E04CE15EE065E08CE99EE00E94EC0B71
:100340006AEE7EE08CE99EE00E94200B6EE171E196
:100350008CE99EE00E94200B66E97AE08CE99EE041
:100360000E94200B8CE99EE00E94370C8CE99EE0F5
:100370000E94300B8CE99EE090934F0F80934E0FBC
:1003800020E034E047E05AE067E087E09EE00E942A
:10039000EC0B6AEE7EE087E09EE00E94200B66E2B6
:1003A00071E187E09EE00E94200B66E97AE087E039
:1003B0009EE00E94200B87E09EE00E94370C87E0C1
:1003C0009EE00E94300B87E09EE09093460F809362
:1003D000450F20E830E042E759E067E082EF99E01E
:1003E0000E94EC0B6AEE7EE082EF99E00E94200B07
:1003F0006EE371E182EF99E00E94200B66E97AE0FA
:1004000082EF99E00E94200B82EF99E00E94370C66
:1004100082EF99E00E94300B82EF99E090934D0FAC
:1004200080934C0F20E830E04DED58E067E08DE51B
:1004300099E00E94EC0B6AEE7EE08DE599E00E9467
:10044000200B64E172E18DE599E00E94200B66E9E2
:100450007AE08DE599E00E94200B8DE599E00E94FD
:10046000370C8DE599E00E94300B8DE599E0909373
:10047000510F8093500F0E949A0EE091E80EF09178
:10048000E90E0190F081E02DCF018DBF9EBF089550
:100490000E9497120C94EA0EB3CDCF92DF92EF92A6
:1004A000FF920F931F93CF93DF9320917C0025FF42
:1004B00004C0C0917900D0E006C0C09178002091BE
:1004C0007900D0E0D22B009789F18C01BE0180E049
:1004D00090E00E941A1B2091CB0E3091CC0E4091DF
:1004E000CD0E5091CE0E0E94D01B6B017C018091ED
:1004F0007C0085FD02C08AE001C088E061E070E018
:1005000002C0660F771F8A95E2F7072E000C880B52
:10051000990B0E941C1B9B01AC01C701B6010E94F4
:10052000811AF8016083718382839383CE01DF9106
:10053000CF911F910F91FF90EF90DF90CF90089592
:100540009C0190917A00906490937A0080917A0057
:1005500086FDFCCFC901A1CFECE7F0E09081907E51
:10056000892B8083CB01ECCFCF92DF92EF92FF9269
:100570000F931F93CF93DF93CDB7DEB7C456D10946
:100580000FB6F894DEBF0FBECDBF90915201E92F98
:10059000F0E0ED5AFE4F8083933120F49F5F9093FB
:1005A000520102C010925201E0915201E23008F46F
:1005B000B2C0F0E0EE5AFE4F80818A3009F0ABC045
:1005C000809153018D3421F150F4863409F44DC0EB
:1005D0008C3409F463C0833409F09BC074C0843543
:1005E00009F492C050F4803509F093C084E591E09D
:1005F0000E94421C0E94A7118CC0833609F47FC060
:100600008C3609F086C084E591E00E94421C59C0F6
:1006100000E010E086E4E82E81E0F82EAE014F5FA6
:100620005F4F6A01C80187D060E874E88EE190E00E
:100630000E94740D69D49F938F937F936F931F9241
:100640001F921F930F93FF92EF92DF92CF920E941F
:10065000A21C0B5F1F4F0FB6F894DEBF0FBECDBFBD
:10066000043091E01907F1F654C084E591E00E944E
:10067000421C009719F40E94EC104BC081500E945C
:10068000081160933C0F70933D0F80933E0F909341
:100690003F0F0E94DE100E94A3103BC084E591E052
:1006A0000E94421C009719F480E090E00AC0019774
:1006B00021E030E0A90102C0440F551F8A95E2F7FE
:1006C000CA0139D026C084E591E00E94421C0097FF
:1006D00019F480E090E011C097FF05C080959095D7
:1006E0002FEF3FEF03C0019721E030E0A90102C0E6
:1006F000440F551F8A95E2F7CA01FFD20AC084E56C
:1007000091E00E94421CF9CF84E591E00E945F1CB9
:1007100025D410925201CC59DF4F0FB6F894DEBFAA
:100720000FBECDBFDF91CF911F910F91FF90EF9042
:10073000DF90CF900895CF93DF9300D0CDB7DEB791
:100740002091DA0E422F50E04817590709F451C1A1
:10075000922F909598239A83282B2827298380937A
:10076000DA0E8A8180FF07C064EF71E080E090E0DC
:100770000E94740D779A8A8181FF07C064EF71E04F
:1007800080E090E00E94740D5D9A8A8182FF07C02C
:1007900064EF71E080E090E00E94740D719A8A81AC
:1007A00083FF07C064EF71E080E090E00E94740D69
:1007B000759A8A8184FF07C064EF71E080E090E061
:1007C0000E94740D2E9A8A8185FF07C064EF71E044
:1007D00080E090E00E94740D2D9A8A8186FF07C008
:1007E00064EF71E080E090E00E94740D739A8A815A
:1007F00087FF07C064EF71E080E090E00E94740D15
:100800005B9A898180FF07C064EF71E080E090E02F
:100810000E94740D769A898181FF07C064EF71E0B0
:1008200080E090E00E94740D5C9A898182FF07C08D
:1008300064EF71E080E090E00E94740D709A89810D
:1008400083FF07C064EF71E080E090E00E94740DC8
:10085000749A898184FF07C064EF71E080E090E0C2
:100860000E94740D2F9A898185FF07C064EF71E0A3
:1008700080E090E00E94740D2C9A898186FF07C069
:1008800064EF71E080E090E00E94740D8F9A89819E
:1008900087FF07C064EF71E080E090E00E94740D74
:1008A0005A9A60E177E280E090E00E94740D8A81BC
:1008B00080FF07C064EF71E080E090E00E94740D5B
:1008C00077988A8181FF07C064EF71E080E090E053
:1008D0000E94740D5D988A8182FF07C064EF71E009
:1008E00080E090E00E94740D71988A8183FF07C0B8
:1008F00064EF71E080E090E00E94740D75988A8149
:1009000084FF07C064EF71E080E090E00E94740D06
:100910002E988A8185FF07C064EF71E080E090E047
:100920000E94740D2D988A8186FF07C064EF71E0E4
:1009300080E090E00E94740D73988A8187FF07C061
:1009400064EF71E080E090E00E94740D5B98898113
:1009500080FF07C064EF71E080E090E00E94740DBA
:100960007698898181FF07C064EF71E080E090E0B4
:100970000E94740D5C98898182FF07C064EF71E06A
:1009800080E090E00E94740D7098898183FF07C019
:1009900064EF71E080E090E00E94740D74988981AA
:1009A00084FF07C064EF71E080E090E00E94740D66
:1009B0002F98898185FF07C064EF71E080E090E0A7
:1009C0000E94740D2C98898186FF07C064EF71E046
:1009D00080E090E00E94740D8F98898187FF07C0A6
:1009E00064EF71E080E090E00E94740D5A9881E01D
:1009F00001C080E00F900F90DF91CF910895CF93C9
:100A0000DF9300D000D0CDB7DEB72091DE0E30915D
:100A1000DF0E2817390709F468C1A90140955095E0
:100A2000482359235C834B83282B392B28273927CC
:100A30003A8329839093DF0E8093DE0E8B8180FFB3
:100A400007C064EF71E080E090E00E94740D109A9E
:100A50008B8181FF07C064EF71E080E090E00E942D
:100A6000740D129A8B8182FF07C064EF71E080E001
:100A700090E00E94740D149A8B8183FF07C064EF8D
:100A800071E080E090E00E94740D169A8B8184FFE3
:100A900007C064EF71E080E090E00E94740D479A17
:100AA0008B8185FF07C064EF71E080E090E00E94D9
:100AB000740D459A8B8186FF07C064EF71E080E07A
:100AC00090E00E94740D439A8B8187FF07C064EF0A
:100AD00071E080E090E00E94740D419A8B819C81CE
:100AE00090FF06C064EF71E080E090E0FDD75F9A70
:100AF000898180FF06C064EF71E080E090E0F4D768
:100B0000119A898181FF06C064EF71E080E090E076
:100B1000EBD7139A898182FF06C064EF71E080E011
:100B200090E0E2D7159A898183FF06C064EF71E0F7
:100B300080E090E0D9D7179A898184FF06C064EFDE
:100B400071E080E090E0D0D7469A898185FF06C0A9
:100B500064EF71E080E090E0C7D7449A898186FF16
:100B600006C064EF71E080E090E0BED7429A8981D0
:100B700087FF06C064EF71E080E090E0B5D7409A4F
:100B800089819A8190FF06C064EF71E080E090E077
:100B9000ABD75E9A60E177E280E090E0A5D78B81E9
:100BA00080FF06C064EF71E080E090E09DD7109870
:100BB0008B8181FF06C064EF71E080E090E094D704
:100BC00012988B8182FF06C064EF71E080E090E0B4
:100BD0008BD714988B8183FF06C064EF71E080E0AF
:100BE00090E082D716988B8184FF06C064EF71E095
:100BF00080E090E079D747988B8185FF06C064EF4D
:100C000071E080E090E070D745988B8186FF06C048
:100C100064EF71E080E090E067D743988B8187FFB5
:100C200006C064EF71E080E090E05ED741988B8170
:100C30009C8190FF06C064EF71E080E090E054D7A3
:100C40005F98898180FF06C064EF71E080E090E0EA
:100C50004BD71198898181FF06C064EF71E080E075
:100C600090E042D71398898182FF06C064EF71E05B
:100C700080E090E039D71598898183FF06C064EF42
:100C800071E080E090E030D71798898184FF06C03A
:100C900064EF71E080E090E027D74698898185FF76
:100CA00006C064EF71E080E090E01ED7449889812F
:100CB00086FF06C064EF71E080E090E015D74298AF
:100CC000898187FF06C064EF71E080E090E00CD777
:100CD000409889819A8190FF06C064EF71E080E0BE
:100CE00090E002D75E9881E001C080E00F900F9005
:100CF0000F900F90DF91CF91089597FF06C020E0ED
:100D000031E0A901481B590BCA0179CE1F93CF933B
:100D1000DF936F9A559A699A6D9A269A259A6B9ADB
:100D2000539A6E9A549A689A6C9A279A249A879A38
:100D3000529A089A0A9A0C9A0E9A3F9A3D9A3B9AAE
:100D4000399A099A0B9A0D9A0F9A3E9A3C9A3A9AB6
:100D5000389A579A569A82E090E00E947D1F182F89
:100D600083E090E00E94851FEC01812F80958093A5
:100D7000DA0ECE01809590959093DF0E8093DE0E73
:100D8000812F90E0D8DCCE013ADE809164008E7F26
:100D90008093640080917C00806C80937C008091C3
:100DA0007A00806880937A0060EA76E881E090E0DB
:100DB0009BD61092800310928103109282031092AE
:100DC000830310927C0310927D0310927E03109295
:100DD0007F03C4E6D0E060E070E080E0BDDB4091DE
:100DE0008003509181036091820370918303480FC7
:100DF000591F611D711D40938003509381036093BF
:100E000082037093830360E070E081E0A5DB409192
:100E10007C0350917D0360917E0370917F03480FA6
:100E2000591F611D711D40937C0350937D03609396
:100E30007E0370937F03219771F6DF91CF911F910D
:100E400008958F929F92AF92BF92CF92DF92EF92CE
:100E5000FF92CF93DF93C4E6D0E0C12CD12C760172
:100E6000812C912C540160E070E080E075DB880EED
:100E7000991EA11CB11C60E070E081E06DDBC80E22
:100E8000D91EE11CF11C219771F78091800390918C
:100E90008103A0918203B0918303881A990AAA0A58
:100EA000BB0A80917C0390917D03A0917E03B09159
:100EB0007F03A7019601281B390B4A0B5B0BCA0164
:100EC000B90157FF03C060E070E0CB010E941C1B1A
:100ED0006B017C01C501B401B7FE03C060E070E0A6
:100EE000CB010E941C1B9B01AC01C701B6010E94F3
:100EF000811ADF91CF91FF90EF90DF90CF90BF905C
:100F0000AF909F908F9008958F929F92AF92BF92D3
:100F1000CF92DF92EF92FF9294DF6B017C0120E091
:100F200030E040E85FE30E94191A4B015C01A70121
:100F3000960160E070E080E89FE30E94181A9B0130
:100F4000AC01C501B4010E94811AFF90EF90DF90BF
:100F5000CF90BF90AF909F908F900895CF92DF92E7
:100F6000EF92FF926B017C018FEC9EE034D6809172
:100F70008403813059F0C092D60ED092D70EE09201
:100F8000D80EF092D90E8BED9EE096D68FEC9EE0B7
:100F9000FF90EF90DF90CF9041C68FEC9EE01BD684
:100FA0001092D60E1092D70E1092D80E1092D90E23
:100FB0008BED9EE081D68FEC9EE030C6CF92DF9223
:100FC000EF92FF928FEC9EE006D65898509A30919F
:100FD0008403313089F08091DE0E9091DF0E9170A4
:100FE000092E000CAA0BBB0BBA2FA92F982F88270C
:100FF0002091DA0E822B03C080E090E0DC01C32E4A
:10100000D12CE12CF12C24E1CC0CDD1CEE1CFF1CBE
:101010002A95D1F7C82AD92AEA2AFB2A8FEC9EE022
:10102000FDD5C701B601FF90EF90DF90CF900895F6
:101030002F923F924F925F926F927F928F929F92E8
:10104000AF92BF92CF92DF92EF92FF920F931F93D6
:10105000CF93DF93CDB7DEB768970FB6F894DEBFB6
:101060000FBECDBF21E02D8339E03D8B88E08C8B16
:101070001D861C861B861A861E821F8290E2988718
:10108000A1E4A987AA24A394BB24BA9400E010E0A9
:10109000EE24EA94F12C2FEF30E0398B288B8C85ED
:1010A0009D852BDE9C89892F90E09F878E8768899C
:1010B0007989601B710B072E000C880B990B0E941D
:1010C0001C1B2B013C016E857F8561507109072E29
:1010D000000C880B990B0E941C1B9B01AC01C301E7
:1010E000B2010E94811A688B798B8A8B9B8B1F8A35
:1010F0001E8AC801110FAA0BBB0B89839A83AB838D
:10110000BC838E899F89AE85BF858A179B070CF0AB
:1011100041C0AE89BF89BD01BB0F880B990B0E94EE
:101120001C1B288939894A895B890E94D01B2B01A5
:101130003C0169817A818B819C810E941C1B9B01EF
:10114000AC01C301B2010E94191A0E94E91A2B01D5
:101150003C01CB01F0DA60E573EC80E090E0C4D4B0
:1011600070DE6B018C019B01AC016E817F818885F3
:1011700099850E94CC1B181634F45B864A86CE8271
:10118000DF82088719872E893F892F5F3F4F3F8B6A
:101190002E8BB7CF8A859B85CEDA3D89232F30E011
:1011A0003A832983B7016A197B09072E000C880B43
:1011B000990B0E941C1B6B017C0169817A81615033
:1011C0007109072E000C880B990B0E941C1B9B01B8
:1011D000AC01C701B6010E94811A2B013C01212CF0
:1011E000312C4501BB0CAA08BB0829813A81221683
:1011F00033060CF03CC0B101032C000C880B990B9A
:101200000E941C1BA30192010E94D01B6B017C0158
:10121000C501B4010E941C1B9B01AC01C701B601B2
:101220000E94191A0E94E91A6B017C01CB0165DD4D
:1012300060E573EC80E090E057D403DE8B01888F8B
:101240009E8B9B01AC016E817F81888599850E9470
:10125000CC1B181644F4DD86CC860E831F83888D44
:1012600088879E899987AFEF2A1A3A0ABECF3D81B7
:10127000332309F497C0AA85BB85BD01BB0F880B3A
:10128000990B0E941C1B6B017C01288939894A89B2
:101290005B890E94181A4B015C0120E030E0A90133
:1012A0000E947D1A87FD06C0C501B4010E94E91A9B
:1012B0008B0102C000E010E0A701960168897989DE
:1012C0008A899B890E94191A6B017C0120E030E019
:1012D0004FE753E40E94CC1B18163CF0C701B6013F
:1012E0000E94E91A798B688B04C02FEF30E0398BAC
:1012F000288BAC85BD85BD01BB0F880B990B0E9467
:101300001C1B6B017C01A30192010E94181A4B0166
:101310005C0120E030E04FE753EC0E947D1A87FD2E
:1013200006C0C501B4010E94E91A5B0104C0AA24E9
:10133000A394BB24BA94A7019601C301B2010E94F1
:10134000191A6B017C0120E030E04FE753E40E9462
:10135000CC1B181634F0C701B6010E94E91A7B01B4
:1013600003C0EE24EA94F12CC7018A199B09298154
:101370003A81821793072CF43E2D3A193D8B1D823A
:1013800002C081E08D8388899989801B910BAE858D
:10139000BF858A179B070CF082CEB889B01BBC8B27
:1013A0001D827DCE68960FB6F894DEBF0FBECDBF0E
:1013B000DF91CF911F910F91FF90EF90DF90CF9031
:1013C000BF90AF909F908F907F906F905F904F9065
:1013D0003F902F9008958FEC9EE0FDD3D1E0C2E0C6
:1013E00013E06FEC7EE08BED9EE031D48091D60E61
:1013F0009091D70EA091D80EB091D90ED0938403BE
:10140000892B8A2B8B2B79F48FEC9EE007D480E01C
:1014100090E091D980E090E0F2DA8FEC9EE0DBD3AF
:10142000109284033CC0589A509A8FEC9EE0F6D3F9
:101430008091B20E882371F160EA76E881E090E055
:1014400053D3F6DD61DD6B017C018FEC9EE0C3D3ED
:101450008091B20E882351F020E030E040E050E46B
:10146000C701B6010E94CC1B18161CF4C09384035C
:1014700002C0109384036091DA0E82E090E00E9433
:101480008A1F6091DE0E7091DF0E83E090E00E9473
:10149000981F05C08FEC9EE09ED3C0938403589A9A
:1014A000509A9FCF292F33272230310559F023300E
:1014B000310569F021303105E9F482E190E022E163
:1014C00031E01CC08EE390E024ED30E017C0992796
:1014D0008130910549F028F0029761F4E8E9F0E0E5
:1014E00005C0E0EDF0E002C0E6EBF0E0849190E0B2
:1014F0009F0104C080E090E020E030E0FA013183F9
:101500002083089578948091E30E8F3FE1F383B7B1
:10151000816083BF889583B78E7F83BFF4CF82E8D5
:101520009AE08093FF209093FE2008951895DF9114
:10153000CF911F910F91FF90EF90DF90CF90BF90D0
:10154000AF909F908F907F906F905F904F903F9063
:101550002F901895DF91CF911F910F91FF90EF90F1
:10156000DF90CF90BF90AF909F908F907F906F90C3
:101570005F904F903F902F90FF91EF91BF91AF916F
:101580009F918F917F916F915F914F913F912F919B
:101590001F900F900FBE0F9018952F913F912F9293
:1015A0003F924F925F926F927F928F929F92AF92F3
:1015B000BF92CF92DF92EF92FF920F931F93CF9340
:1015C000DF93AAEABAE0AF93BF93E091E80EF091FF
:1015D000E90E8DB79EB7808391833F932F93089533
:1015E0000F931F932FB7F894809146089091470866
:1015F0006091840070918500B09B0EC0B09A80917C
:1016000046089091470801969093470880934608B2
:1016100060918400709185002FBFA0E0B0E0DC01F4
:1016200099278827AB0160E070E08C019D01042BB5
:10163000152B262B372BC901B8011F910F91089547
:10164000FC01A081B181CD010197918380836C93CE
:10165000A081B181CD010197918380837C9308950E
:101660004FB7F8942091EA0E3091EB0EFC011086F2
:101670008781082E000C990B2817390714F04FBFEB
:1016800008959093EB0E8093EA0EF9CFDC011B9640
:101690002D913C911C978217930779F41796EC9142
:1016A000EE0FFF0BE351F14F0190F081E02D8FB76A
:1016B000F894118210828FBF0895FFCFF8942F9273
:1016C0003F924F925F926F927F928F929F92AF92D2
:1016D000BF92CF92DF92EF92FF920F931F93CF931F
:1016E000DF93A5C31F93CF93DF93E091E80EF091B2
:1016F000E90E3097D9F0EC0116811123B9F0FE0103
:101700000FB6F8948081803009F410830FBE8823CF
:1017100069F0E82FF0E0EE0FFF1FEB5FF04F608104
:10172000718140E050E080E0C9DFE9CFDF91CF91E7
:101730001F91089581EE9EE0D5DF80916F008D7F2F
:1017400080936F00109230088091E60E9091E70E22
:10175000892B99F1B19AE091E60EF091E70E81891B
:1017600092899093890080938800E091E60EF09131
:10177000E70EC188D288E388F48832DFDC01CB0130
:101780008C199D09AE09BF09B7FD10C08091E60E06
:101790009091E70E65DFE091E60EF091E70E878508
:1017A00090899093E70E8093E60ED2CFB199D2CF75
:1017B00080916F00826080936F001092E10E089517
:1017C000FC012081222339F0108240E050E060E0EB
:1017D00070E080E073CF0895DF92EF92FF920F9355
:1017E0001F93CF93DF93EC01D62E7A01890180916C
:1017F000E80E9091E90E892B19F08CEE9EE072DFD5
:10180000E5E0FFE080E090E021913191232B49F465
:10181000FC01EE0FFF1FEB5FF04FD183C0838E837F
:1018200004C001968431910579F78091E80E90917A
:10183000E90E892B19F08CEE9EE0C2DFC8010197FA
:101840008E0D9F1D99838883FB82EA821D830C8302
:10185000DF8281E088878DEC9AE09A878987DF9123
:10186000CF911F910F91FF90EF90DF900895CF934C
:10187000DF93EC0182EE9EE035DFEF81EE0FFF0B90
:10188000E351F14F8FB7F8940190F081E02D8FBFB5
:10189000309761F4DC87CB87EF81EE0FFF0BE351CC
:1018A000F14F8FB7F894D183C08308C083859485A6
:1018B0009C878B878FB7F894D487C3878FBF82EEBE
:1018C0009EE0DF91CF917CCFDC01ED91FC911197EF
:1018D000309739F42091E80E3091E90E2D933C9326
:1018E000089585859685009711F0FC01FACF7687DB
:1018F00065870895DC01ED91FC911197E617F707D4
:1019000041F4258536852D933C93168615860895DA
:10191000FC0185859685009779F068177907C1F7EE
:10192000DB011D968D919C911E97968785871E964B
:101930001C921E921D97089508951F920F920FB644
:101940000F9211248F939F9380914608909147089E
:10195000019690934708809346089F918F910F902E
:101960000FBE0F901F901895CF93DF93EC0181EE7F
:101970009EE0B8DEE091E60EF091E70EEC17FD0771
:1019800041F4878590899093E70E8093E60E1AC004
:10199000FC013097C9F089899A89AB89BC89418952
:1019A000528963897489841B950BA60BB70BB7FD0D
:1019B0000BC087859089C817D90751F78F859889FB
:1019C000908B8787C1E001C0C0E081EE9EE0F8DE29
:1019D0008C2FDF91CF910895CF92DF92EF92FF92FB
:1019E0000F931F93CF93DF93EC01498B5A8B6B8B33
:1019F0007C8BE091E60EF091E70E309751F0018973
:101A0000128923893489041B150B260B370B37FDEC
:101A10003EC0DC015096FC93EE931F979093E70E27
:101A20008093E60E5093890040938800B19A80918C
:101A30006F00826080936F005196CD90DD90ED90A5
:101A4000FC905497CDDDDC01CB018C199D09AE09CA
:101A5000BF09B7FD25C08091E40E9091E50EDF919E
:101A6000CF911F910F91FF90EF90DF90CF90F8CD25
:101A700051960D911D912D913C9154976A017B01D6
:101A8000C01AD10AE20AF30AF7FC05C0FD01A785D6
:101A9000B089109769F7EC01B88BAF87908B878777
:101AA000DF91CF911F910F91FF90EF90DF90CF903A
:101AB0000895CF92DF92EF92FF926B017C0181EE4D
:101AC0009EE010DEB701A6018091E80E9091E90E2C
:101AD00083DF41EE5EE060E070E081E0EFDDFF90EB
:101AE000EF90DF90CF900895CF92DF92EF92FF9228
:101AF0006B017C0175DD24E0CC0CDD1CEE1CFF1CB1
:101B00002A95D1F73AE0F694E794D794C7943A959A
:101B1000D1F76C0D7D1D8E1D9F1DFF90EF90DF9006
:101B2000CF90C7CFCF93DF93EB016091E80E709118
:101B3000E90ECADEAE0160E070E081E0BFDDDF915A
:101B4000CF910895CF92DF92EF92FF920F931F9360
:101B5000CF93DF938C01EB0169017A016091E80E6C
:101B60007091E90EB1DE81EE9EE0BCDDB701A60109
:101B70008091E80E9091E90E2FDFF8941092E10E1B
:101B8000AE0160E070E081E099DD8091E80E909117
:101B9000E90EEADECE01A6DD6091E80E7091E90E55
:101BA000C801A8DECE010CDE80E0DF91CF911F914D
:101BB0000F91FF90EF90DF90CF900895DC01ED91B1
:101BC000FC911197309731F0258536852D933C9304
:101BD000CF0146CD0895CF93DF93EC0183DD89815A
:101BE000E091E80EF091E90E811105C0309709F0FF
:101BF0008681898308C0309749F09681891306C091
:101C00008A818F5F8A83CE01DBDD04C0BE01CE01F5
:101C1000039688DF8A81DF91CF910895CF93DF9378
:101C2000EC0160DD8A81882319F081508A830BC022
:101C3000EB81FC81309711F4198205C0868189837C
:101C4000CE010396BBDFCE01DF91CF91B9CD0F93CB
:101C50001F93CF93DF93EC018B0144DDC801DEDFDE
:101C6000BE01CE0101965EDFC801DF91CF911F91C9
:101C70000F91B1CFCF92DF92EF92FF920F931F930C
:101C8000CF93DF93EC018B0169017A012BDDC80151
:101C9000C5DFA7019601BE01CE01019653DFC82F13
:101CA000C80199DF8C2FDF91CF911F910F91FF9089
:101CB000EF90DF90CF900895CF93DF93EC0112DD8A
:101CC00089819A81892B19F0CE01019677DFCE01A7
:101CD000DF91CF9175CDEFE6F0E080818B7F80833F
:101CE00081E08093E00E83B7817F846083BF83B7F8
:101CF000816083BF889583B78E7F83BF83B79091C0
:101D0000E30E817F892B83BF1092E00E40E050E00C
:101D100060E070E080E0D2CCF8940FB6F894A8951B
:101D200080916000886180936000109260000FBE17
:101D3000D2DFFECF8091E00E81114BC08091EA0E80
:101D40009091EB0EDC01AA0FBB1FA351B14F2D9157
:101D50003C9111972115310599F1F9014085411107
:101D600029C09093EB0E8093EA0E2091E80E3091FB
:101D7000E90EE217F30721F0F093E90EE093E80E85
:101D80002091E80E3091E90E0384F485E02D408522
:101D90004111FACFE217F307B9F7880F991FDC0159
:101DA000A351B14FED93FC9380916F008B7F809393
:101DB0006F0008950384F485E02D2E173F0771F618
:101DC0000197129797FFC3CF9093EB0E8093EA0E83
:101DD000A3CF0895E091E80EF091E90E0280F3811F
:101DE000E02D9183808382EE9EE07CDCEFE6F0E0E4
:101DF00080818B7F808381E08093E00E8091E80E6C
:101E00009091E90E22E0FC01208740DCF8941092CA
:101E1000E20E1092E00E8EDFE091E80EF091E90EF6
:101E20000190F081E02DCF018DBF9EBF0895282F36
:101E3000A7E9BAE0AF93BF93E091E80EF091E90E05
:101E40008DB79EB780839183EAEFF0E2CF018DBF1B
:101E50009EBF4115510511F0FA011082E091E80E84
:101E6000F091E90E20876115710529F07093E90E54
:101E70006093E80E01C05EDFE091E80EF091E90E9C
:101E80000190F081E02DCF018DBF9EBF08950F928C
:101E90000FB60F921F9211242F933F934F935F938E
:101EA0006F937F938F939F93AF93BF93EF93FF9322
:101EB000E091E80EF091E90E0184F285E02D09959C
:101EC000EAEFF0E2CF018DBF9EBF34DFE091E80E74
:101ED000F091E90E0190F081E02DCF018DBF9EBF02
:101EE00008950F920FB60F921F9211242F933F93D4
:101EF0004F935F936F937F938F939F93AF93BF9312
:101F0000EF93FF93E091E80EF091E90E0184F285E2
:101F1000E02D0995EAEFF0E2CF018DBF9EBF8091E1
:101F200030088F5F8093300880912F0881110AC09C
:101F300081E080932F088091E40E9091E50E009748
:101F400009F08EDBF7DEE091E80EF091E90E0190EA
:101F5000F081E02DCF018DBF9EBF0895F894AEEAC9
:101F6000BFE0AF93BF93AAE9BBE0AF93BF9380916B
:101F70003008882309F0189510922F08E091E80E98
:101F8000F091E90E81E08087E091E40EF091E50E9A
:101F90008DB79EB780839183EAEFF0E2CF018DBFCA
:101FA0009EBFC8DEE091E80EF091E90E0190F0814D
:101FB000E02DCF018DBF9EBF089520E130E08D98C8
:101FC00097FF02C08E9A01C08E988D9A880F991F34
:101FD00021503109A1F78E988C9A62E370E080E07D
:101FE00090E082DD8C98089584E39FE0F4DD64E363
:101FF0007FE081E39FE02BDE01E010E082E0E82E4D
:10200000F12CC0912F0F84E39FE008DE8C2F880F06
:10201000980102C0220F331F8A95E2F7C901CDDF74
:1020200060E573EC80E090E05FDD8091300F880F19
:10203000970102C0220F331F8A95E2F7C901BDDF65
:1020400060E177E280E090E04FDD80E090E0B5DF96
:1020500084E39FE0C0DDC093300F80912F0FC81341
:10206000D0CF64E37FE081E39FE0F1DDCACFEF9260
:10207000FF920F931F93CF93DF938D98859A8C983F
:10208000849A8E98869A80E090E00E947D1F873027
:1020900008F086E08093300F00E010E0C0E0D0E070
:1020A0008091300F90E08017910719F082E090E066
:1020B00002C081E090E09801220F331F02C0880F18
:1020C000991F2A95E2F7C82BD92BCE0176DF64EF52
:1020D00071E080E090E008DD0F5F1F4F07301105D1
:1020E000F9F660E177E280E090E0FEDC00E010E0ED
:1020F00083E0E82EF12CC701002E02C0880F991F43
:102100000A94E2F780959095C823D923CE0155DF34
:1021100064EF71E080E090E0E7DC0E5F1F4F0E306F
:10212000110549F781E090E00E947D1F91E0811147
:1021300001C090E090930601DF91CF911F910F9124
:10214000FF90EF9008950F931F93CF938091060116
:10215000882381F140913C0F50913D0F60913E0FDB
:1021600070913F0FE7E0F1E080E090E00191119184
:1021700021913191041715072607370710F0C82F52
:1021800005C001968730910589F7C6E084E39FE09A
:1021900022DD8091300F8C1739F00E94CD07C0935B
:1021A0002F0F81E39FE088DD84E39FE0CF911F91B3
:1021B0000F9134CDCF911F910F9108958091060119
:1021C000811109C081E08093060161E081E090E027
:1021D0000E948A1FB8CF0895809106018823B9F024
:1021E0001092060160E081E090E00E948A1F84E383
:1021F0009FE0F1DC8091300F863031F086E08093F3
:102200002F0F81E39FE058DD84E39FE007CD089521
:10221000863048F060911F0170912001809121016A
:1022200090912201089594E0899FF0011124E95FC3
:10223000FE4F60817181828193810895829A7A9A9A
:1022400060EA76E881E090E04FDCF9CF68EE73E079
:1022500080E090E049DC0E94FB19CFB7F8940E941F
:10226000DE19181619063CF0CFBF60E27EE480E06C
:1022700090E03ADCF2CF0E94B402F6CF8B98839ABA
:102280005998519A80E49FE0A6DCC1E0A9D9009159
:10229000B30E1091B40E2091B50E3091B60E6801B8
:1022A0007901C61AD70AE80AF90AF7FC12C08B9A14
:1022B000599AC093B20E2091B30E3091B40E409152
:1022C000B50E5091B60E60E47FE089E39FE0D2DC6A
:1022D000DDCF59988B981092B20E60E47FE089E3CD
:1022E0009FE0B5DCD3CF1F93CF93DF93182F83E20A
:1022F00091E0F9D1C3E2D1E01F821EBDCE0105D22B
:102300001E828EB5DF91CF911F9108950F931F9379
:10231000CF93DF938C01FC018081C3E0D0E08095F6
:10232000E2DFF8014081518162817381762F652F50
:10233000542F4427482B4083518362837383219712
:1023400071F78095DF91CF911F910F91CCCFCF92F4
:10235000DF92EF92FF92CF93DF93EC0180E49FE056
:102360003ADC3ED96B017C019E01A0E8BEE30E94ED
:10237000331CDC01CB012AE0B695A795979587958C
:102380002A95D1F7C80ED91EEA1EFB1EC092B30EC5
:10239000D092B40EE092B50EF092B60E89E39FE0B3
:1023A0008BDC80E49FE0DF91CF91FF90EF90DF9096
:1023B000CF9034CC80E49FE00EDC12D96093B30E52
:1023C0007093B40E8093B50E9093B60E89E39FE0A0
:1023D00073DC80E49FE022CCCF92DF92EF92FF92F9
:1023E0006B017C0187E49FE0F6DB8091B10E8530C4
:1023F00090F494E0899FF0011124EE5AF04FC082CE
:10240000D182E282F3828F5F8093B10E87E49FE0F6
:1024100005DC81E004C087E49FE000DC80E0FF9001
:10242000EF90DF90CF90089500D000D0CDB7DEB709
:10243000F4D083E291E0F2D08FEF55DFC82ED12C9B
:10244000E12CF12CC982DA82EB82FC828430C9F063
:1024500030F48230B1F0A8F4813099F0EDCF8630BD
:10246000C9F078F0873041F7FC2CEE24DD24CC2431
:102470006894E0F8C982DA82EB82FC8204E010E022
:1024800024C0CE01019642DF69817A818B819C81D3
:10249000A3DFD2CF0E94DE07FC2CEE24DD24CC2467
:1024A000C62AD72AE82AF92AC982DA82EB82FC8274
:1024B00004E010E08F2D809516DFFE2CED2CDC2C37
:1024C000CC2401501109B1F7B7CF8F2D80950BDFC8
:1024D000FE2CED2CDC2CCC2401501109B1F7ACCF33
:1024E000CF93DF93EC0187E49FE075DBE091B10EC1
:1024F000EE23B1F0E150E093B10E84E0E89FF001EB
:102500001124EE5AF04F80819181A281B38188839A
:102510009983AA83BB8387E49FE080DB81E004C0CA
:1025200087E49FE07BDB80E0DF91CF91089500D0CE
:1025300000D0CDB7DEB79BDD0E948606589A509A30
:10254000CE010196CDDF882309F446C089819A81A6
:10255000AB81BC814B2F5527662777274230510529
:1025600061057105B1F130F4413051056105710526
:10257000B1F032C0433051056105710561F144305D
:1025800051056105710541F560913C0F70913D0F5A
:1025900080913E0F90913F0F0E94AE071DC0AC018D
:1025A000BD016F73772724E0440F551F661F771F07
:1025B0002A95D1F740933C0F50933D0F60933E0F07
:1025C00070933F0FA7FF03C0F9DDBDDD05C004DE3A
:1025D00003C0BDDE01C0EEDE60E177E280E090E0A6
:1025E00083DAAECFCF93DF93EC018091E80E909128
:1025F000E90E9093670F8093660FF8948CB580680E
:102600008CBD40E050E060E070E081E057D881E0B0
:102610008F838E83DF91CF9108950895CF93DF93B9
:10262000EC0187EB9EE0D7DA809164008B7F80938A
:1026300064008D81803199F040F4843071F08830ED
:10264000B9F08230D1F41CBC15C0803469F08038F8
:1026500069F0803291F482E00CC01CBC02C081E0C1
:102660008CBD8DB58E7F08C082E0FACF83E0F8CFB5
:1026700081E08CBD8DB581608DBD8881811109C0DF
:102680008CB580618CBD219A8981882341F0229A82
:1026900006C08CB58F7E8CBD89818111239A8A8179
:1026A000882319F08CB58F7D02C08CB580628CBDFB
:1026B0008B81811103C08CB5877F02C08CB5886087
:1026C0008CBD8C81811103C08CB58B7F02C08CB511
:1026D00084608CBD81E08F831E828CB580648CBD4C
:1026E000DF91CF910895FC012781211109C02DB5FB
:1026F000022E000C330B232F221F2227221F01C082
:1027000021E0211101C06ECF0895FC012681211125
:1027100009C02DB5022E000C330B232F221F2227B8
:10272000221F01C021E0211101C05CCF08950F924A
:102730000FB60F921F9211242F933F934F935F93E5
:102740006F937F938F939F93AF93BF93EF93FF9379
:10275000E091E80EF091E90E0184F285E02D0995F3
:10276000EAEFF0E2CF018DBF9EBF8CB58F778CBDB5
:102770008091660F9091670F009711F00E94300BC7
:10278000D9DAE091E80EF091E90E0190F081E02DA8
:10279000CF018DBF9EBF0895CF93DF93EC01FC0165
:1027A00070968BE0DF011D928A95E9F782E08C83B9
:1027B000898783E08E8761E0CE0101967DD28823F0
:1027C00061F061E0CE01069677D2882331F061E0B6
:1027D000CE010B96DF91CF916FC280E0DF91CF9158
:1027E00008950F931F93CF9320916C0F2430F9F429
:1027F000FC010489158926893789012B022B032BBB
:10280000B1F0C62F81818F708093E9008091E8003C
:1028100085FF04C0C093F10080E00AC08091E80009
:102820008E778093E800A4D28823A1F301C082E0D0
:10283000CF911F910F910895FB01682F8485958595
:10284000D0DF21E030E0811102C020E030E08827B5
:102850009927821B930B089520916C0F243031F53A
:10286000FC014489558966897789452B462B472B7E
:10287000E9F081818F708093E9008091F20090915E
:10288000F300892B89F09091E8008091E8008E7721
:102890008093E80095FD08C06BD2811108C080913B
:1028A000E8008E778093E80080E0089582E0089544
:1028B00020916C0F243089F4FC0144895589668984
:1028C0007789452B462B472B41F021812F70209390
:1028D000E9002091E80020FDBFCF089520916C0F02
:1028E000243019F08FEF9FEF0895FC01448955893A
:1028F00066897789452B462B472BA1F386818F70FC
:102900008093E9008091E80082FFECCF8091F20093
:102910009091F300892B21F02091F10030E002C06A
:102920002FEF3FEF8091F2009091F300892B29F473
:102930008091E8008B778093E800C9010895FC013D
:1029400084859585CBDF97FF02C08EEF9FEF0895BA
:10295000FB012EE0DB011D922A95E9F723E023839A
:102960002CE134E1318720872FE934E13387228756
:102970009587848708950895CF93DF93EC01809124
:10298000E80083FFA6C0888190E02091710F30910C
:10299000720F2817390709F09CC080916E0F8132A1
:1029A00061F020F4803209F43EC093C0823209F411
:1029B0006CC0833209F47DC08CC080916D0F813A68
:1029C00009F087C08091E800877F8093E8008091BC
:1029D000E80080FFFCCF8C899D89AE89BF898093F8
:1029E000F100492F5A2F6B2F77274093F100AD014B
:1029F000662777274093F1008B2F9927AA27BB27BB
:102A00008093F100888D8093F100898D8093F1008F
:102A10008A8D8093F1008091E8008E778093E800A2
:102A2000DF91CF9186C180916D0F813209F051C045
:102A30008091E800877F8093E8008091E80082FD24
:102A400005C080916C0F8111F8CF43C03091F10027
:102A50002091F1009091F1008091F1003C8B2D8B41
:102A60009E8B8F8B8091F100888F8091F100898FF0
:102A70008091F1008A8F8091E8008B778093E80045
:102A800058D1CE01DF91CF9176CF80916D0F8132F9
:102A900001F58091E800877F8093E8004AD180911A
:102AA0006F0F9091700F998B888BCE01DF91CF9132
:102AB000B9C480916D0F813261F48091E800877F05
:102AC0008093E80036D160916F0FCE01DF91CF91F6
:102AD00052CFDF91CF9108952091730F3091740FF1
:102AE0002617370748F06115710539F42091E80081
:102AF0002E772093E80001C0B901FC0120E06115A8
:102B0000710569F180916C0F8823E1F18530E1F165
:102B10008091E80083FD3AC08091E80082FD2CC0DE
:102B20008091E80080FFEBCF8091F2009091F3005C
:102B30006115710551F08830910538F42191209389
:102B4000F100615071090196F3CF21E0089709F077
:102B500020E08091E8008E778093E800D0CF2111AB
:102B6000D1CF0AC080916C0F882361F0853061F06D
:102B70008091E80083FD0AC08091E80082FFF2CFD7
:102B800080E0089582E0089583E0089581E008954B
:102B90002091730F3091740F2617370748F0611595
:102BA000710539F42091E8002E772093E80001C0E8
:102BB000B901FC0120E06115710581F180916C0F74
:102BC000882309F43EC0853009F43DC08091E800B7
:102BD00083FD3BC08091E80082FD2DC08091E8001C
:102BE00080FFE9CF8091F2009091F30061157105AB
:102BF00059F08830910540F424912093F1003196EA
:102C0000615071090196F2CF21E0089709F020E0A8
:102C10008091E8008E778093E800CDCF2111CECF50
:102C20000AC080916C0F882361F0853061F080913B
:102C3000E80083FD0AC08091E80082FFF2CF80E0C7
:102C4000089582E0089583E0089581E00895982F23
:102C5000973068F59093E900981739F07091EC007F
:102C60002091ED005091F00003C0242F762F50E00A
:102C700021FD02C09F5FECCF3091EB003E7F30938F
:102C8000EB003091ED003D7F3093ED003091EB0093
:102C900031603093EB007093EC002093ED00509383
:102CA000F0002091EE0027FDE5CF80E008958F70C1
:102CB0008093E90081E008950F931F93CF93DF93F2
:102CC000062FEC0110E0101771F16881611103C04B
:102CD0001F5F2596F8CF2C81A981BA819B81862F11
:102CE0008F70873010F080E01FC0223010F442E077
:102CF00001C046E0E8E0F0E020E0EA17FB0720F43E
:102D00002F5FEE0FFF1FF9CF2295207F422B50E45B
:102D1000959F90011124661F6627661F622B97DF1F
:102D20008111D6CFE0CF81E0DF91CF911F910F913C
:102D3000089580916D0F87FF11C08091E80082FD9A
:102D400005C080916C0F8111F8CF11C08091E8000F
:102D50008B770BC080916C0F882349F08091E8003D
:102D600080FFF8CF8091E8008E778093E800089587
:102D70002091E4003091E50095E64091EC00842F2D
:102D8000817040FF23C08091E80080FD1DC08091CC
:102D90006C0F882399F0853099F08091EB0085FDC8
:102DA00011C04091E4005091E5002417350729F344
:102DB000915011F09A01E1CF84E0089582E00895E6
:102DC00083E0089581E0089580E008954091E8004F
:102DD00042FFDDCF08950F931F93CF93DF934ED023
:102DE00055D0C8EDD0E088818F778883888180684E
:102DF000888388818F7D8883E7EDF0E0808180681B
:102E0000808319BC10926C0F1092680F10926A0F99
:102E10001092690F00EE10E0F80180818B7F8083B3
:102E200088818160888342E060E080E010DFE1EE2D
:102E3000F0E080818E7F8083E2EEF0E0808181602F
:102E40008083808188608083F80180818E7F808389
:102E5000888180618883DF91CF911F910F910895C0
:102E6000E8EDF0E080818F7E8083E7EDF0E0808107
:102E70008160808381E080936B0FADCFE8EDF0E05F
:102E800080818C7F80831092E20008951092DA0096
:102E90001092E10008951F920F920FB60F92112425
:102EA0000BB60F922F933F934F935F936F937F9344
:102EB0008F939F93AF93BF93EF93FF938091E10024
:102EC00082FF0AC08091E20082FF06C08091E1008B
:102ED0008B7F8093E10057D28091DA0080FF1DC084
:102EE0008091D80080FF19C08091DA008E7F809396
:102EF000DA008091D90080FF0CC084E189BD86E1B1
:102F000089BD09B400FEFDCF81E080936C0F7BD2B8
:102F100004C019BC10926C0F79D28091E10080FF3F
:102F200018C08091E20080FF14C08091E2008E7F83
:102F30008093E2008091E20080618093E2008091C2
:102F4000D80080628093D80019BC85E080936C0F14
:102F50001AD28091E10084FF2FC08091E20084FFAB
:102F60002BC084E189BD86E189BD09B400FEFDCF97
:102F70008091D8008F7D8093D8008091E1008F7E72
:102F80008093E1008091E2008F7E8093E200809147
:102F9000E20081608093E2008091680F882311F045
:102FA00084E007C08091E30087FD02C081E001C09A
:102FB00083E080936C0FE7D18091E10083FF27C00D
:102FC0008091E20083FF23C08091E100877F80939E
:102FD000E10082E080936C0F1092680F8091E10015
:102FE0008E7F8093E1008091E2008E7F8093E200EB
:102FF0008091E20080618093E20042E060E080E046
:1030000026DE8091F00088608093F000BCD1FF91B3
:10301000EF91BF91AF919F918F917F916F915F9150
:103020004F913F912F910F900BBE0F900FBE0F90BD
:103030001F9018951F920F920FB60F9211240BB686
:103040000F922F933F934F935F936F937F938F9341
:103050009F93AF93BF93CF93DF93EF93FF93C09171
:10306000E900CF708091EC00D82FD17080FDD0E8BE
:103070001092E9008091F000877F8093F0007894AF
:1030800020D01092E9008091F00088608093F000D9
:10309000CD2BCF70C093E900FF91EF91DF91CF91DD
:1030A000BF91AF919F918F917F916F915F914F9160
:1030B0003F912F910F900BBE0F900FBE0F901F905E
:1030C00018951F93CF93DF93CDB7DEB7AA970FB6AE
:1030D000F894DEBF0FBECDBFEDE6FFE08091F100BA
:1030E00081932FE0E537F207C9F799D18091E80085
:1030F00083FF31C180916D0F90916E0F953009F46F
:1031000083C030F49130A9F168F0933091F123C17C
:10311000983009F4F0C0993009F4FCC0963009F0F9
:103120001AC194C0803821F0823809F014C108C057
:103130008091690F90916A0F992389F082600FC086
:103140008091710F8F70873008F005C18093E9007E
:103150008091EB0085FB882780F91092E90090911F
:10316000E800977F9093E8008093F1001092F100BF
:10317000CDC0282F2D7F09F0EEC0882319F08230B2
:1031800061F0E9C080916F0F813009F0E4C09330A5
:1031900009F080E080936A0F2EC080916F0F81113B
:1031A0002AC08091710F8F702FEF280F263008F002
:1031B000D2C08093E9002091EB0020FF1CC0933027
:1031C00021F48091EB00806214C09091EB0090613B
:1031D0009093EB0021E030E0A90102C0440F551F9D
:1031E0008A95E2F74093EA001092EA008091EB00A2
:1031F00088608093EB001092E9008091E800877F5F
:103200008093E80096DDA7C08111A5C010916F0FD3
:103210001F778091E3008078812B8093E300809179
:10322000E800877F8093E80084DD8091E80080FFDC
:10323000FCCF8091E30080688093E300111102C00D
:1032400082E001C083E080936C0F85C0805882309B
:1032500008F081C080916F0F9091700F8C3D53E00A
:10326000950771F583E08A838AE289834FB7F894E2
:10327000DE01139620E03EE051E2E32FF0E05093B0
:103280005700E49120FF03C0E295EF703F5FEF70BD
:103290008E2F90E0EA3010F0C79601C0C0968D9353
:1032A0009D932F5F243149F74FBF8091E800877FBE
:1032B0008093E8006AE270E0CE0101960DDC15C053
:1032C0006091710F7091720FAE014F5F5F4F0E945E
:1032D000520ABC01892B09F43EC09091E800977F07
:1032E0009093E80089819A8153DC8091E8008B7784
:1032F0008093E80030C0803871F58091E800877FC6
:103300008093E8008091680F8093F1008091E8003D
:103310008E7776CF81111FC080916F0F9091700FC3
:1033200099270297C4F48091E800877F8093E80092
:1033300080916F0F8093680FFCDC8091680F811182
:1033400006C08091E30087FD02C081E001C084E0F7
:1033500080936C0F5ED08091E80083FF0AC080915B
:10336000E800877F8093E8008091EB008062809383
:10337000EB00AA960FB6F894DEBF0FBECDBFDF916B
:10338000CF911F9108950895CF9380916C0F88235A
:1033900099F0C091E900CF709091EC00892F817075
:1033A00090FD80E8C82B1092E9008091E80083FD31
:1033B00088DECF70C093E900CF910895CF93DF935B
:1033C0008BE291E08BDAEC018BE291E071DADCDFE9
:1033D000CE01DF91CF91089584B7877F84BF0FB668
:1033E000F894A895809160008861809360001092A5
:1033F00060000FBE35CDF0DF6CEB7EE08BE291E03C
:10340000A7DA789408951092CA0E08951092CA0E01
:1034100008958BE291E0C0D91092CA0E08958BE214
:1034200091E0AACAFC01808981708093CA0E089538
:103430005058BB27AA270ED075C166D130F06BD18A
:1034400020F031F49F3F11F41EF45BC10EF4E095BF
:10345000E7FB51C1E92F77D180F3BA1762077307F1
:103460008407950718F071F49EF58FC10EF4E0956E
:103470000B2EBA2FA02D0B01B90190010C01CA012E
:10348000A0011124FF27591B99F0593F50F4503ED9
:1034900068F11A16F040A22F232F342F4427585FCB
:1034A000F3CF469537952795A795F0405395C9F7E3
:1034B0007EF41F16BA0B620B730B840BBAF091509B
:1034C000A1F0FF0FBB1F661F771F881FC2F70EC03A
:1034D000BA0F621F731F841F48F48795779567950D
:1034E000B795F7959E3F08F0B3CF9395880F08F0F6
:1034F0009927EE0F979587950895D9D008F481E024
:1035000008950CD00FC107D140F0FED030F021F467
:103510005F3F19F0F0C0511139C1F3C014D198F3D5
:103520009923C9F35523B1F3951B550BBB27AA2744
:1035300062177307840738F09F5F5F4F220F331FB6
:10354000441FAA1FA9F333D00E2E3AF0E0E830D082
:1035500091505040E695001CCAF729D0FE2F27D085
:10356000660F771F881FBB1F261737074807AB0753
:10357000B0E809F0BB0B802DBF01FF2793585F4FC8
:103580002AF09E3F510568F0B6C000C15F3FECF3E2
:10359000983EDCF3869577956795B795F7959F5F8D
:1035A000C9F7880F911D9695879597F90895E1E0E1
:1035B000660F771F881FBB1F621773078407BA0740
:1035C00020F0621B730B840BBA0BEE1F88F7E0959B
:1035D000089504D06894B111D9C00895BCD088F082
:1035E0009F5790F0B92F9927B751A0F0D1F0660FEF
:1035F000771F881F991F1AF0BA95C9F712C0B1300A
:1036000081F0C3D0B1E00895C0C0672F782F88271C
:10361000B85F39F0B93FCCF3869577956795B39548
:10362000D9F73EF490958095709561957F4F8F4FB7
:103630009F4F0895E89409C097FB3EF490958095BC
:10364000709561957F4F8F4F9F4F9923A9F0F92F68
:1036500096E9BB279395F695879577956795B795E6
:10366000F111F8CFFAF4BB0F11F460FF1BC06F5FCC
:103670007F4F8F4F9F4F16C0882311F096E911C0DE
:10368000772321F09EE8872F762F05C0662371F0FF
:1036900096E8862F70E060E02AF09A95660F771F13
:1036A000881FDAF7880F9695879597F90895990FEF
:1036B0000008550FAA0BE0E8FEEF16161706E807FC
:1036C000F907C0F012161306E407F50798F0621B1D
:1036D000730B840B950B39F40A2661F0232B242BF2
:1036E000252B21F408950A2609F4A140A6958FEF11
:1036F000811D811D089597F99F6780E870E060E063
:1037000008959FEF80EC089500240A94161617067A
:1037100018060906089500240A94121613061406C2
:1037200005060895092E0394000C11F4882352F025
:10373000BB0F40F4BF2B11F460FF04C06F5F7F4FDD
:103740008F4F9F4F089557FD9058440F551F59F0C4
:103750005F3F71F04795880F97FB991F61F09F3F7E
:1037600079F087950895121613061406551FF2CFA7
:103770004695F1DF08C0161617061806991FF1CFF7
:1037800086957105610508940895E894BB2766271E
:103790007727CB0197F908958ADF08F48FEF089512
:1037A0000BD0C0CFB1DF28F0B6DF18F0952309F0B9
:1037B000A2CFA7CF1124EACFC6DFA0F3959FD1F304
:1037C000950F50E0551F629FF001729FBB27F00DCF
:1037D000B11D639FAA27F00DB11DAA1F649F662724
:1037E000B00DA11D661F829F2227B00DA11D621F73
:1037F000739FB00DA11D621F839FA00D611D221F2D
:10380000749F3327A00D611D231F849F600D211D10
:10381000822F762F6A2F11249F5750408AF0E1F0B3
:1038200088234AF0EE0FFF1FBB1F661F771F881FFC
:1038300091505040A9F79E3F510570F05CCFA6CF44
:103840005F3FECF3983EDCF3869577956795B795E7
:10385000F795E7959F5FC1F7FE2B880F911D969511
:10386000879597F90895A29FB001B39FC001A39FC8
:10387000700D811D1124911DB29F700D811D1124A9
:10388000911D0895FC0188279927E8942191203201
:10389000E9F3293010F02E30C8F32B3239F02D32F5
:1038A00031F4689403C046D0820F911D21912053BA
:1038B0002A30C8F31EF4909581959F4F08951F9369
:1038C000FC0199278827BC01E89411911032E9F393
:1038D000193010F01E30C8F31B3249F01D3241F48C
:1038E000689405C012D0610F711D811D911D119149
:1038F00010531A30B8F33EF4909580957095619509
:103900007F4F8F4F9F4F1F910895592F482F372F6B
:10391000262F660F771F881F991F660F771F881F36
:10392000991F620F731F841F951F660F771F881FD3
:10393000991F08957AE0979F902D879F802D910D74
:10394000112408950F931F93CF93DF93CDB7DEB764
:103950002E970FB6F894DEBF0FBECDBF0D891E891E
:1039600086E08C831A8309838FEF9FE79E838D8384
:10397000AE01475E5F4F6F89788DCE01019610D002
:10398000EF81F885E00FF11F10822E960FB6F894A4
:10399000DEBF0FBECDBFDF91CF911F910F91089574
:1039A0002F923F924F925F926F927F928F929F924F
:1039B000AF92BF92CF92DF92EF92FF920F931F933D
:1039C000CF93DF93CDB7DEB72B970FB6F894DEBF5A
:1039D0000FBECDBF6C017B018A01FC0117821682EC
:1039E000838181FFBFC1CE0101963C01F601938125
:1039F000F70193FD859193FF81917F01882309F45D
:103A0000ADC1853239F493FD859193FF81917F019A
:103A1000853221F4B60190E0D6D1E8CF912C212C4B
:103A2000312CFFE1F315D8F08B3279F038F4803285
:103A300079F08332A1F4232D20611DC08D3261F015
:103A4000803369F4232D216016C0832D8260382EC7
:103A5000E32DE4603E2E2AC0F32DF8601DC037FC34
:103A60002DC020ED280F2A3040F08E32B9F436FCFC
:103A700075C1232D2064322E19C036FE06C08AE09F
:103A8000989E200D1124922E11C0EAE02E9E200D4A
:103A90001124222EF32DF0623F2E08C08C3621F423
:103AA000832D8068382E02C0883641F4F70193FDDB
:103AB000859193FF81917F018111B3CF982F9F7DD5
:103AC0009554933028F40C5F1F4F9FE399830DC0EA
:103AD000833631F0833771F0833509F055C020C04B
:103AE000F801808189830E5F1F4F88248394912C75
:103AF000530112C02801F2E04F0E511CF801A080C2
:103B0000B18036FE03C0692D70E002C06FEF7FEF19
:103B1000C5014ED14C018201F32DFF773F2E15C018
:103B2000280122E0420E511CF801A080B18036FE2F
:103B300003C0692D70E002C06FEF7FEFC5012DD18A
:103B40004C01F32DF0683F2E820133FC19C0822D09
:103B500090E088169906A0F4B60180E290E033D197
:103B60002A94F5CFF50137FC859137FE81915F01ED
:103B7000B60190E028D121102A9421E0821A910800
:103B80008114910479F7E1C0843611F0893639F552
:103B9000F80137FE07C060817181828193810C5FDB
:103BA0001F4F08C060817181072E000C880B990B94
:103BB0000E5F1F4FF32DFF763F2E97FF09C09095A4
:103BC0008095709561957F4F8F4F9F4FF0683F2E86
:103BD0002AE030E0A30133D1882E861844C085370F
:103BE00031F4232D2F7EB22E2AE030E025C0932D14
:103BF000997FB92E8F36C1F018F4883579F0AEC0B0
:103C0000803719F0883721F0A9C0E92FE061BE2E76
:103C1000B4FE0DC0FB2DF460BF2E09C034FE0AC0F7
:103C2000292F2660B22E06C028E030E005C020E132
:103C300030E002C020E132E0F801B7FE07C0608149
:103C40007181828193810C5F1F4F06C060817181F9
:103C500080E090E00E5F1F4FA301F1D0882E861800
:103C6000FB2DFF773F2E36FE0DC0232D2E7FA22E7B
:103C7000891458F434FE0BC032FC09C0832D8E7EAB
:103C8000A82E05C0B82CA32C03C0B82C01C0B92C99
:103C9000A4FE0FC0FE01E80DF11D8081803321F4E8
:103CA0009A2D997EA92E09C0A2FE06C0B394B394A2
:103CB00004C08A2D867809F0B394A3FC10C0A0FE3E
:103CC00006C0B21480F4280C922C9B180DC0B214BC
:103CD00058F4B60180E290E076D0B394F8CFB214F5
:103CE00018F42B1802C0982C212CA4FE0FC0B6018A
:103CF00080E390E068D0A2FE16C0A1FC03C088E774
:103D000090E002C088E590E0B6010CC08A2D86786C
:103D100051F0A1FE02C08BE201C080E2A7FC8DE25F
:103D2000B60190E050D0891430F4B60180E390E001
:103D30004AD09A94F8CF8A94F301E80DF11D80815E
:103D4000B60190E040D08110F6CF222009F44ECE8B
:103D5000B60180E290E037D02A94F7CFF601868151
:103D6000978102C08FEF9FEF2B960FB6F894DEBFBE
:103D70000FBECDBFDF91CF911F910F91FF90EF90BC
:103D8000DF90CF90BF90AF909F908F907F906F907B
:103D90005F904F903F902F900895FC0105906150E7
:103DA00070400110D8F7809590958E0F9F1F089551
:103DB000FC016150704001900110D8F780959095FA
:103DC0008E0F9F1F08950F931F93CF93DF93FB01D7
:103DD000238121FD03C08FEF9FEF2CC022FF16C06F
:103DE00046815781248135814217530744F4A081CD
:103DF000B1819D012F5F3F4F318320838C932681BA
:103E000037812F5F3F4F3783268314C08B01EC012E
:103E1000FB010084F185E02D0995892BE1F6D8019D
:103E200016968D919C911797019617969C938E9359
:103E30001697CE01DF91CF911F910F910895FA014E
:103E4000AA27283051F1203181F1E8946F936E7FD9
:103E50006E5F7F4F8F4F9F4FAF4FB1E03ED0B4E0CA
:103E60003CD0670F781F891F9A1FA11D680F791F0B
:103E70008A1F911DA11D6A0F711D811D911DA11D1C
:103E800020D009F468943F912AE0269F112430192C
:103E9000305D3193DEF6CF010895462F4770405DC7
:103EA0004193B3E00FD0C9F7F6CF462F4F70405D76
:103EB0004A3318F0495D31FD4052419302D0A9F7D1
:103EC000EACFB4E0A6959795879577956795BA95CB
:103ED000C9F700976105710508959B01AC010A2E91
:103EE00006945795479537952795BA95C9F7620F68
:103EF000731F841F951FA01D0895F999FECF92BDD1
:103F000081BDF89A992780B50895A8E1B0E042E014
:103F100050E013C0262FF999FECF1FBA92BD81BD84
:103F200020BD0FB6F894FA9AF99A0FBE019608953B
:103F3000F1DF272FF0CFDC01CB01FC01F999FECF97
:103F400006C0F2BDE1BDF89A319600B40D92415021
:063F50005040B8F708958F
:103F56000000750F20000180841E0000093D00004E
:103F6600127A000024F40000366E0100512502FF8B
:103F7600FFFFFF01010100000000000083100000A8
:103F8600010410000001820800000100000000008A
:103F96000000000000002C25642C25642C252E3200
:023FA6006600B3
:00000001FF
